:020000040000FA
:06000000E5EF30F01200F4
:0600080059EF1BF012008D
:06001800B8EF1BF012001E
:06002A0003002A62000041
:10003000B500000038000000775C0000E407000015
:100040000100000024620000F8000000060000002B
:10005000E3EC0EF082802C0EE66E010E36EC0CF016
:100060007CEC08F0140EE12402E3E168E652E16E54
:10007000D2DAEECF79F0EECF7AF0EECF7BF0EECFA2
:100080007CF0EECF7DF0EECF7EF0EECF7FF0EECFC6
:1000900080F0EECF81F0EECF82F0EECF83F0EECFA6
:1000A00084F0EECF85F0EECF86F0EECF87F0EECF86
:1000B00088F0EECF89F0EECF8AF0EECF8BF0EECF66
:1000C0008CF0006E140EE15C02E2E16AE552E16E32
:1000D00000500001B56BB66BDBEC08F08290F28E3D
:1000E000D58ECD80F2A4FED7F2949C0EE66E150E4E
:1000F000E66E55EC30F0E552E552F29E8DEC0CF0D8
:10010000F28E8D0EE66E000EE66EABEC04F0E5525C
:10011000E5520001B70502E1F6EC09F0990EE66E32
:10012000000EE66E8D0EE66E000EE66ED4EC04F068
:10013000E552E552E552E552D9EC07F0A8EC07F09C
:1001400000017451040A6EE0070A5FE0010A2EE024
:10015000030A1DE0010A01E095D0010E0001B95D1E
:1001600014E3B55106E10001B16BB26BB36BB46B34
:1001700002D046EC0CF019EC0EF002E2E16AE55216
:10018000E16E00500001B96B80D0B92B7ED096ECA7
:100190000CF0E65275C0E6FF76C0E6FF77C0E6FFDA
:1001A00078C0E6FF1AEC0BF06AE267D082807CEC44
:1001B0000CF03F0E436E6CC03BF06DC03CF06EC067
:1001C0003DF06FC03EF0F8EC20F08EEC0BF010EC40
:1001D0000EF0FEEC0BF097C03CF098C03DF04EECFA
:1001E00020F099EC0DF05CEC0CF068EC0BF0B1EC4D
:1001F0000EF0436E51EC0CF0E65275EC0CF03EC084
:10020000E6FF1AEC0BF03BE238D0819A828046EC94
:100210000CF0E6523AC0E6FF75EC0CF01AEC0BF06D
:100220002EE22BD0010E0001B55D12E342EC0CF082
:10023000436A22EC0CF00CE0406A416A5C0E426EAC
:10024000420E436E2CEC0CF003E00001010EE96F4E
:100250000001E95103E196EC0CF00CD0A9EC0EF092
:1002600075C03BF076C03CF077C03DF078C03EF002
:1002700051EC0CF019EC0EF002E2E16AE552E16E8D
:10028000005003D0090EFAEC0BF00001B551020A40
:100290002BE0030A1FE0010A01E024D7EA2B380E05
:1002A000EA5D02E2818A01D0819A406A416AC80E01
:1002B000426E410E436E22EC0CF001E013D7E5C014
:1002C000E7F0E6C0E8F00001B52BB52B010EB66FE4
:1002D000819A08D742EC0CF0436A2CEC0CF001E157
:1002E00001D70001B52BFED6B65101E0FBD6E66A78
:1002F000E66A70EC0DF0100EEDEC0BF003E03CEC58
:100300000CF0FDE10050E66E040EE66E70EC0DF0B0
:10031000080EEDEC0BF003E03CEC0CF0FDE10050BE
:10032000E66E050EE66E70EC0DF0BAC0E6FF060E46
:1003300028EC0EF050EC0BF0070E28EC0EF0E0EC81
:100340000BF0080EDDEC0AF002EC0CF050EC0BF0B8
:10035000090EDDEC0AF002EC0CF0E0EC0BF00A0EFA
:1003600032EC0EF050EC0BF00B0E32EC0EF0E0EC39
:100370000BF00C0E3CEC0EF050EC0BF00D0E3CECC8
:100380000EF0E0EC0BF00E0E46EC0EF050EC0BF025
:100390000F0E46EC0EF0E0EC0BF0100EE66E70EC7B
:1003A0000DF0E652E66AE66AE66AE66A1AEC0BF0D7
:1003B00002E2E16AE552E16E00508DEC0CF0FA0EBB
:1003C0002AEC0BF0F29E0001B52B01D88BD6ADECD8
:1003D0000EF0DE6ADD6A8280DE6ADD6ADECF00F062
:1003E000DDCF01F0780E005C000E01580BE2580ED4
:1003F000E66E020E36EC0CF08280DF2A010EEEE390
:10040000DB2AECD78290818AF5EC0EF0819AF5EC2C
:100410000EF0818AA2EC0DF0819AA2EC0DF0F2D7D9
:10042000E3EC0EF0E6529FEC0BF014EC0CF0BF0E78
:100430000EEC0BF04BEC21F0FA0E3BC0DBFFFB0E99
:100440003CC0DBFFFC0E3DC0DBFFFD0E3EC0DBFF12
:10045000DF6A9FEC0BF068C040F069C041F06AC0F1
:1004600042F06BC043F06CEC0DF01EEC0CF00EE1B2
:10047000FA0E68C0DBFFFB0E69C0DBFFFC0E6AC032
:10048000DBFFFD0E6BC0DBFF010EDF6E9FEC0BF0A0
:100490006CC040F06DC041F06EC042F06FC043F0E0
:1004A0006CEC0DF015EC0EF00EE1FA0E6CC0DBFFFB
:1004B000FB0E6DC0DBFFFC0E6EC0DBFFFD0E6FC0E0
:1004C000DBFF010EDF6E006A016A800E026E470ECE
:1004D000036E70C03BF071C03CF072C03DF073C061
:1004E0003EF0FA0EDBCF40F0FB0EDBCF41F0FC0E0E
:1004F000DBCF42F0FD0EDBCF43F0F8EC0EF064C032
:100500003BF065C03CF066C03DF067C03EF062EC79
:1005100020F079EC0DF03D0E406EC30E416EAE0E34
:10052000426E390E436EF8EC20F089EC0BF0E5ECEE
:1005300021F0DE523CC0DEFF3DC0DDFFDD52A00EEB
:10054000036E150E046E010E056EDBCF06F0020E73
:10055000DBCF07F0086A0650035C006E07500458B2
:10056000016E08500558026E030E00C0DBFF040E3A
:1005700001C0DBFF13EC0DF00234000E021807E699
:10058000D880740E0054F50E0154000E025412E28D
:10059000740EF36E010EF3CFDBFFF50EF36E020E59
:1005A000F3CFDBFF2C0EF36E030EF3CFDBFF200E39
:1005B00030EC0DF013EC0DF0D8900250000A06E676
:1005C000630E005CE70E0158000E025812E2630E43
:1005D000F36E010EF3CFDBFFE70EF36E020EF3CFE7
:1005E000DBFF3C0EF36E030EF3CFDBFF2E0E30EC81
:1005F0000DF06DEC0BF0EECF03F0EFCF04F01BEC41
:100600000DF066EC0CF0050EE15C02E2E16AE552E9
:10061000E16E62EF0BF011EC0BF0190EE12402E336
:10062000E168E652E16E140EDB6A150EDB6A160E07
:10063000DB6A170EDB6A180EDB6ADE6ADE6ADE6AC8
:10064000DD6ADD52DD52040EDB6A050EDB6A060E42
:10065000DB6A070EDB6A080EDB6A090EDB6A0A0E2C
:10066000DB6A0B0EDB6A0C0EDB6A0D0EDB6A0E0E0C
:10067000DB6A0F0EDB6A100EDB6A110EDB6A120EEC
:10068000DB6A130EDB6A170EDB6A180EDB6A170EC5
:10069000DBCF00F0180EDBCF01F0000E005C080E7F
:1006A000015856E29F0EE66E6CEC08F0E552F3CF6F
:1006B00003F0F4CF04F0056A04BE056837EC0DF0D2
:1006C000EE500324006EEE500420016EEE50052023
:1006D000026E140E00C0DBFF150E01C0DBFF160E0C
:1006E00002C0DBFFE6EC0EF07DEC0BF0970EE66E41
:1006F0006CEC08F0C1EC0AF08EEC0BF0ACEC0BF0FB
:100700007DEC0BF08F0EE66E6CEC08F0C1EC0AF09D
:10071000A8EC0DF07DEC0BF0280E94EC0EF099ECAB
:100720000BF07DEC0BF02A0E94EC0EF09CEC0BF031
:100730007DEC0BF02C0E94EC0EF0B9EC0BF0010EEE
:100740002AEC0BF0170EDB2A180EA1E3DB2A9FD749
:10075000140EDBCF00F0150EDBCF01F0160EDBCF51
:1007600002F0406A080E416E426AFDEC0EF0B8ECF1
:1007700021F083EC0CF0E6EC0EF094EC0DF08EEC36
:100780000BF0ACEC0BF094EC0DF0A8EC0DF094EC4D
:100790000DF099EC0BF094EC0DF09CEC0BF094EC5C
:1007A0000DF0B9EC0BF062C000F063C001F0026A1A
:1007B00001BE026837EC0DF0020EEB500218E8AEF5
:1007C00002D0023406D00050EE5C0150EE580250C8
:1007D000EE5803E2020EFAEC0BF0E6EC0EF0406A83
:1007E000F00E416E0F0E426E450E19EC0FF00DE04B
:1007F00010EC0EF0FEEC0BF0406A600E416E5B0EEA
:10080000426E450E5EEC0BF003E1030EFAEC0BF0CA
:1008100070EC0BF006EC0EF00DE0080EDBCF04F0F0
:10082000090EDBCF05F00A0EDBCF06F00B0E0AEC4B
:100830000EF003E1040EFAEC0BF0CFEC0DF006EC39
:100840000EF00DE00C0EDBCF04F00D0EDBCF05F04B
:100850000E0EDBCF06F00F0E0AEC0EF003E1050ED4
:10086000FAEC0BF0DCEC0DF006EC0EF00DE0100EE7
:10087000DBCF04F0110EDBCF05F0120EDBCF06F05C
:10088000130E0AEC0EF003E1060EFAEC0BF0ACECE2
:100890000BF0406A416AE70E426E440E19EC0FF00D
:1008A00015E0040EDBCF04F0050EDBCF05F0060EDD
:1008B000DBCF06F0070EDBCF07F0406A800E416EFB
:1008C0000C0E426E450E5EEC0BF003E1070EFAECE7
:1008D0000BF06DEC0BF0EECF03F0C0EC0EF0EECFB2
:1008E00007F0B9EC0EF0EECF0BF03EEC0DF0EECFD2
:1008F0000FF0EECF10F0EECF11F0EECF12F0EFCF01
:1009000013F01BEC0DF013C0EDFF12C0EDFF11C092
:10091000EDFF10C0EDFF0FC0EDFF0EC0EDFF0DC0ED
:10092000EDFF0CC0EDFF0BC0EDFF0AC0EDFF09C0ED
:10093000EDFF08C0EDFF07C0EDFF06C0EDFF05C0ED
:10094000EDFF66EC0CF0190EE15C02E2E16AE552A3
:10095000E16E62EF0BF011EC0BF08F0E99EC0EF0E4
:10096000F3CFEEFF01C0EDFF970E99EC0EF0020EF3
:10097000C6EC0BF0870E99EC0EF0040EC6EC0BF0F3
:10098000280E9EEC0EF0060EC6EC0BF02A0E9EEC26
:100990000EF0080EC6EC0BF02C0E9EEC0EF00A0EBC
:1009A000C6EC0BF062EF0BF011EC0BF0240EE1241F
:1009B00002E3E168E652E16E79C0E6FF7AC0E6FF45
:1009C0007BC0E6FF7CC0E6FFC8EC0DF0020E24EC15
:1009D0000EF0EECFE6FFEFCFE6FF21EC09F0006E60
:1009E000060EE15C02E2E16AE552E16E0050040E9F
:1009F0003AC0DBFF050E3BC0DBFF060E3CC0DBFF51
:100A0000070E3DC0DBFF7DC0E6FF7EC0E6FF7FC076
:100A1000E6FF80C0E6FFC8EC0DF0EECFE6FFEFCFBB
:100A2000E6FFC4EC09F0006E060EE15C02E2E16A4A
:100A3000E552E16E00503AC0DEFF3BC0DEFF3CC035
:100A4000DEFF3DC0DDFFDD52DD5265EC0DF0FEEC5A
:100A50000BF065EC0DF0040E24EC0EF03EEC0DF006
:100A6000EFCF0FF0C7EC0EF055EC0EF0F8EC20F0E5
:100A700079EC0DF0EAEC0EF0080E24EC0EF0EECF5F
:100A80001CF0EECF1DF0EECF1EF0EFCF1FF07CEC90
:100A90000CF03C0E436E1CC03BF01DC03CF01EC071
:100AA0003DF01FC03EF04BEC21F03BC018F03CC0C5
:100AB00019F03DC01AF03EC01BF07CEC0CF03C0E6F
:100AC000436E4BEC21F0B6EC0DF042EC0CF0400E16
:100AD000436E71EC0CF0F1EC0EF0B9EC0BF065EC40
:100AE0000DF0040EE7EC0BF0080E39EC0BF083EC84
:100AF0000CF0170E3EC0DBFF65EC0DF0080E24EC89
:100B00000EF0180EEECFDBFF190EEECFDBFF1A0E44
:100B1000EECFDBFF1B0EEECFDBFF100EDBCF08F0BE
:100B2000110EDBCF09F0120EDBCF0AF0130EDBCF74
:100B30000BF0E20E106EE90E116E150E126E3D0EE8
:100B40008CEC0AF0340E246E800E256E370E266E65
:100B50003A0E54EC0AF05EEC0EF0140EDBCF08F007
:100B6000150EDBCF09F0160EDBCF0AF0170EDBCF28
:100B70000BF0B00E106E030E116EE70E126E3C0EEF
:100B80008CEC0AF04E0E246ED10E256E110E266EE0
:100B90003C0E54EC0AF0040E86EC0BF0180EDBCF82
:100BA00008F0190EDBCF09F01A0EDBCF0AF01B0E8E
:100BB000DBCF0BF0170E106EB70E116ED10E126E4A
:100BC000380E8CEC0AF0B70E246E620E256E3F0EC6
:100BD000266E3E0E54EC0AF0080E86EC0BF0C8ECC4
:100BE0000DF00A0E24EC0EF0EECF04F0EFCF05F07E
:100BF00004C03CF005C03DF04EEC20F061EC0DF07F
:100C00005CEC0CF0E9EC0DF070EC0BF0B1EC0EF0DC
:100C10000EEC0BF04BEC21F0F6EC0DF065EC0DF06A
:100C2000100EE7EC0BF0140E39EC0BF01C0E3BC071
:100C3000DBFF1D0E3CC0DBFF1E0E3DC0DBFF1F0EA9
:100C40003EC0DBFF65EC0DF0140E24EC0EF0200E20
:100C5000EECFDBFF210EEECFDBFF220EEECFDBFF70
:100C6000230EEECFDBFF1C0EDBCF04F01D0EDBCF1F
:100C700005F01E0EDBCF06F01F0EDBCF07F0A50E32
:100C80000C6EBD0E0D6E810E0E6E3E0EE1EC0AF086
:100C900061EC0DF065EC0DF0100E86EC0BF0200E03
:100CA000DBCF04F0210EDBCF05F0220EDBCF06F008
:100CB000230EDBCF07F0090E0C6E8A0E0D6E2F0E81
:100CC0000E6E3F0EE1EC0AF004EC0FF065EC0DF057
:100CD000140E86EC0BF0240EE15C02E2E16AE552B0
:100CE000E16E62EF0BF0A9EC0EF0A9C03BF0AAC0D8
:100CF0003CF0ABC03DF0ACC03EF04BEC21F03BC053
:100D0000BDF03CC0BEF03DC0BFF03EC0C0F0D9C099
:100D100040F0DAC041F0DBC042F0DCC043F04BEC05
:100D200021F03BC0C9F03CC0CAF03DC0CBF03EC092
:100D3000CCF0A9EC0EF01EEC0CF007E10001C96B41
:100D4000CA6B800ECB6FBF0ECC6F14EC0CF03F0E55
:100D5000436E9FEC0CF015EC0EF007E10001C96B3F
:100D6000CA6B800ECB6F3F0ECC6F42EC0CF0436A27
:100D7000DDC03BF0DEC03CF0DFC03DF0E0C03EF047
:100D800015EC0EF04FE1DDC040F0DEC041F0DFC0F9
:100D900042F0E0C043F0A8EC0CF04BEC21F03BC07B
:100DA000D1F03CC0D2F03DC0D3F03EC0D4F0B1ECA5
:100DB0000CF067EC0EF015EC0EF019E1F5EC0BF011
:100DC0001EEC0CF014E1D1C040F0D2C041F0D3C011
:100DD00042F0D4C043F00BEC0CF062EC20F03BC0CE
:100DE000C5F03CC0C6F03DC0C7F03EC0C8F0A3ECA3
:100DF0000EF0C60E436E0BEC0CF01EEC0CF004E192
:100E000045EC0DF0C60EC86FA3EC0EF0460E436E17
:100E10000BEC0CF015EC0EF00AE145EC0DF0460E73
:100E2000C86F05D00001C56BC66BC76BC86B42ECC1
:100E30000CF0436AB5EC0CF015EC0EF049E1C1C0C2
:100E400040F0C2C041F0C3C042F0C4C043F0A8ECBF
:100E50000CF061EC20F061EC0DF058EC0DF0B5EC0D
:100E60000CF04BEC21F03BC0CDF03CC0CEF03DC0CF
:100E7000CFF03EC0D0F0BDC0C1F0BEC0C2F0BFC018
:100E8000C3F0C0C0C4F0CD0E406ECC0E416E426EB9
:100E9000BD0E436E1EEC0CF004E14CEC0DF0BD0EEB
:100EA000D06FCD0E406ECC0E416E426E3D0E436E45
:100EB000CDC03BF0CEC03CF0CFC03DF0D0C03EF046
:100EC00015EC0EF00AE14CEC0DF03D0ED06F05D0A4
:100ED0000001CD6BCE6BCF6BD06BC5C040F0C6C0F0
:100EE00041F0C7C042F0C8C043F09FEC0CF062EC88
:100EF00020F061EC0DF0CDC040F0CEC041F0CFC08D
:100F000042F0D0C043F062EC20F03BC0D5F03CC0D2
:100F1000D6F03DC0D7F03EC0D8F0B1EC0CF01EECDE
:100F20000CF004E120EC0DF0BE0ED86FF5EC0BF0E8
:100F300015EC0EF004E120EC0DF03E0ED86FD5C09C
:100F40003AF0D6C03BF0D7C03CF0D8C03DF012001C
:100F5000ADEC0EF0E65228EC0DF08D0EEE6E000EAC
:100F6000ED6EDF6A0C0EDF5C06E2CCEC0BF001E309
:100F7000DB2ADF2AF7D728EC0DF0990EEE6E000E73
:100F8000ED6EDF6A1C0EDF5C06E2CCEC0BF001E3D9
:100F9000DB2ADF2AF7D70001D80EE55D070EE659F8
:100FA00004E3800EE56F050EE66FE552E552E5526B
:100FB00089D3ADEC0EF00001B65162E0E751E519BE
:100FC0005FE1E851E6195CE1827015EC2AF081944A
:100FD000020E0EEC0DF0100EEDEC0BF003E03CEC0D
:100FE0000CF0FDE100500EEC0DF0080EF6DB03E016
:100FF0003CEC0CF0FDE100500EEC0DF0BAC0E6FF49
:10100000FEEC2FF0E552DE6ADD6ADECF00F0DDCFC8
:1010100001F0580E005C020E015819E2E5C0E9FF2C
:10102000E6C0EAFFEF500EEC0DF00001E52B000EDC
:10103000E623D80EE55D070EE65904E3800EE56F62
:10104000050EE66FDF2A010EE0E3DB2ADED781849E
:10105000580E0001BA27020EBB23000EBC23540E0B
:10106000BA5DFF0EBB59010EBC5901E3B66BE751E7
:10107000E51902E1E851E61902E00A0EBBDB8270D5
:10108000E552E5521FD3CDDAE652010EDF6EDF5096
:10109000500805E3817A100EDDDADF2AF8D7900ECA
:1010A000E66E010EE3DB010EDF6EFD0EDB50D88035
:1010B000DF5408E3818A960ECDDA819A640ECADA8B
:1010C000DF2AF3D7BC0EE66E020ED0DBFD0EDB503E
:1010D0000208DBE1E552F6D2A4DAFD0EDBCFE6FF33
:1010E000BEEC30F0E5520FEC31F00AEC31F00009C3
:1010F000FCE101EC31F0E6D2060E50EC0EF0016E90
:10110000006A00C0E6FFE66E070E50EC0EF00BEC36
:101110000FF000010010626F01C063F0080EA1DA49
:10112000090E3EDABEEC0CF0AFDABEEC0CF00A0EA3
:1011300098DA0B0E35DAC7EC0CF0A6DAC7EC0CF037
:101140000C0E8FDA0D0E2CDAD0EC0CF09DDAD0EC10
:101150000CF00E0E86DA0F0E23DAD9EC0CF094DACE
:10116000D9EC0CF0100E50EC0EF00001746F110E63
:1011700078DA120E15DAE2EC0CF086DAE2EC0CF01A
:10118000130E6FDA140E0CDAEBEC0CF07DDAEBECEC
:101190000CF0150E66DA160E03DAF4EC0CF074DAC5
:1011A000F4EC0CF0170E5DDA180EFAD9FDEC0CF029
:1011B0006BDAFDEF0CF0ADEC0EF0DE6ADD6A0001DB
:1011C000996B9A6B9B6B9C6B9D6B9E6B9F6BA06BE3
:1011D000A16BA26BA36BA46BA56BA66BA76BA86B93
:1011E000A96BAA6BAB6BAC6BAD6BAE6BAF6BB06B43
:1011F000B16BB26BB36BB46BDE6ADD6A10EC0EF0F0
:10120000580ED880EE54020EED540EE3DECFE9FF07
:10121000DDCFEAFF800EE926050EEA22EF6ADF2A1B
:10122000010EECE3DB2AEAD700013E0EF26FEE0E70
:10123000F36F620EF46F270EF56FF16BE552E55216
:1012400041D2E3EC0EF0E60E006E390E016E2D0E6B
:10125000026E470E036EE60E086E390E096E2D0EF5
:101260000A6E470E0B6E49DA08C0E6FF09C0E6FFBA
:101270000AC0E6FFE66EB50EE66E450EE66E390E66
:10128000E66E3E0EE66E5C0E186E8F0E196EC20E86
:101290001A6E430E1B6EBADB3BC01CF03CC01DF047
:1012A0003DC01EF03EC01FF058EC0DF079EC0EF082
:1012B00062EC20F0B6EC0DF05C0E246E8F0E256E05
:1012C000C20E266E430E276EF80EDBCF28F0F90E05
:1012D000DBCF29F0FA0EDBCF2AF0FB0EDBCF2BF0B1
:1012E00028C040F029C041F02AC042F02BC043F092
:1012F00070EC0EF062EC20F01DEC0FF0D9DB82EC0C
:101300000EF0EFDAF2DA3EC0E6FFCAEC15F02C6E12
:10131000080EE15C02E2E16AE552E16E2C50E55212
:10132000E7CF0BF0E552E7CF0AF0E552E7CF09F03F
:10133000E552E7CF08F003EC0EF03AC00CF03BC0EA
:101340000DF03CC00EF03DC00FF03AC040F03BC085
:1013500041F03CC042F03DC043F0BFEC0DF04BEC1F
:1013600021F0D7D9DBD9DECF3AF0DECF3BF0DECFAC
:101370003CF0DDCF3DF0DD52DD52040EE15C02E2D7
:10138000E16AE552E16E9ED14CD940DBD2DBF80E2A
:10139000DBCF10F0F90EDBCF11F0FA0EDBCF12F03D
:1013A000FB0EDBCF13F010C040F011C041F012C0B3
:1013B00042F013C043F061EC20F09BDBA9EC0EF08F
:1013C0004BEC21F0A8DB406A480E416E990E426E4C
:1013D0003E0E436E4BEC21F074DB3BC03AF03CC058
:1013E0003BF03DC03CF03EC03DF06CD10001EB5104
:1013F000EC111DE100019A0E796F910E7A6F510E7A
:101400007B6F450E7C6F330E7D6F630E7E6FFA0E21
:101410007F6F440E806F816B826B836B846B856BF7
:10142000866B876B886B896B8A6B8B6B8C6B9E0E64
:10143000046EEF0E056E670E066EBE0E076EEBC0F5
:101440003CF0ECC03DF04EEC20F042D9406A900EEA
:10145000416E510E426E450E436E62EC20F0E5EC9B
:1014600021F03CC08FF03DC090F00001D890EC51CD
:1014700004E6900EEB5D010EEC5906E20001300E21
:101480008D6F070E8E6F0BD0CEEC0EF0BBD962ECD9
:1014900020F0E5EC21F03CC08DF03DC08EF0000165
:1014A000EB2B000EEC231200276EBADBEECF2CF0F4
:1014B000EECF2DF0EECF2EF0EFCF2FF0180EDBCFCA
:1014C00030F0190EDBCF31F01A0EDBCF32F01B0EED
:1014D000DBCF33F030C040F031C041F032C042F0D9
:1014E00033C043F02CC03BF02DC03CF02EC03DF08B
:1014F0002FC03EF061EC20F03BC028F03CC029F04A
:101500003DC02AF03EC02BF0D3DAEADB4BEC21F0F1
:101510001DEC0FF0EAEF0EF0136E040EDBCF18F0A7
:10152000050EDBCF19F0060EDBCF1AF0070EDBCF6E
:101530001BF0100EDBCF1CF0110EDBCF1DF0120ED6
:10154000DBCF1EF0130EDBCF1FF01CC040F01DC020
:1015500041F01EC042F01FC043F0CBDB61EC20F035
:1015600005DBA6DA10C03BF011C03CF012C03DF024
:1015700013C03EF0F8EC0EF002DB62EC20F08BEFD3
:101580000DF0E55240DBF3CF08F0F4CF09F0F3CFD4
:101590003CF0F4CF3DF04EEC20F0BDDAF1EF0EF070
:1015A0007FDB12EC0FF000010210006E03C001F0AF
:1015B0003C6E03C03DF04EEF20F0E66E91DACEEFC8
:1015C0000EF00F6E0C0EDBCF14F00D0EDBCF15F00E
:1015D0000E0EDBCF16F00F0EDBCF17F01C0EDBCF9D
:1015E00018F01D0EDBCF19F01E0EDBCF1AF01F0E08
:1015F000DBCF1BF018C040F019C041F01AC042F018
:101600001BC043F07FDB61EC20F085DB51DA4DDB62
:101610004BEC21F026EC0FF062EF20F0436E6CEF04
:101620000DF0D9CFE6FFDACFE6FFE1CFD9FFE2CF69
:10163000DAFF120010EC02F0EECFF1F0EECFF2F094
:10164000EECFF3F0EECFF4F0EECFF5F0006E050E36
:10165000E15C1200E66EE66A3CEC2EF0E552E552E3
:1016600012001EDB026E036E026A02C0E6FFE66E27
:101670001200EADA7EDBEFCF0BF089DB80DAF8ECE0
:1016800020F049DAF1EF0EF05EDB460E436EF8EF24
:1016900020F0E552F3CF00F0F4CF01F0C8EF0DF0E9
:1016A0004BEC21F0E5EC21F03CC000F03DC001F036
:1016B0003DC000F0016A3D50E66E1200436E22DA32
:1016C00015EF0EF0E552E5CFDAFFE7CFD9FF1200B4
:1016D000BDDB4BEC21F061EF0DF0A2DAD5EF0EF09F
:1016E000080EDBCF00F0090EDBCF01F00A0EDBCFD6
:1016F00002F00B0EDBCF03F0120000C0E6FF01C0CA
:10170000E6FF02C0E6FF03C0E6FF12009DDA5EEFCF
:101710000EF001DACDD9E0D961EF20F03BC0DEFF59
:101720003CC0DEFF3DC0DEFF3EC0DDFFDD52DD52CE
:1017300012004FDACFEF0DF059DADCEF0DF0FA0EB0
:10174000DBCF00F0FB0EDBCF01F0FC0EDBCF02F0B5
:10175000FD0EDBCF03F01200040EDBCF00F0050E10
:10176000DBCF01F0060EDBCF02F0070EDBCF03F07C
:101770001200100E3BC0DBFF110E3CC0DBFF120E4F
:101780003DC0DBFF130E3EC0DBFF12005DDAF3CF7E
:10179000EEFF01C0EDFF1200010EDBCFE9FF020EEC
:1017A000DBCFEAFFEF50E5C0E9FFE6C0EAFFEF6EEE
:1017B0000001E52B000EE623010EDB2A020E1200CB
:1017C0004BEC21F0E5EC21F03C50E66E12003CDAE7
:1017D000ECDAEFCF03F065EF0DF01F0BBAC000F0AD
:1017E000BBC001F0BCC002F01200E6DA3E0E436E50
:1017F00067EF0EF0E66E47DCE5521200C1DAEFCF7C
:1018000007F012007DC03BF07EC03CF07FC03DF091
:1018100080C03EF01200C5C03BF0C6C03CF0C7C05F
:101820003DF0C8C03EF01200406A416A800E426E30
:101830001200406A416A160E426E12001DEC22F040
:10184000010A1200A1C03BF0A2C03CF0A3C03DF0D1
:10185000A4C03EF015EF0EF09DC03BF09EC03CF0E2
:101860009FC03DF0A0C03EF015EF0EF0E66E3CECE0
:101870002EF0E552E5521200D890023201320032C9
:10188000E8061200406A416A426A120073EC06F0F0
:101890003AC0B1F03BC0B2F03CC0B3F03DC0B4F0D0
:1018A00012004BEC21F03BC0B1F03CC0B2F03DC0A7
:1018B000B3F03EC0B4F0120089C040F08AC041F0DD
:1018C0008BC042F08CC043F061EF20F004C0EDFF0C
:1018D00003C0EDFF02C0EDFF01C0EDFF00C0EFFF50
:1018E0001200F8EC20F08BEF0EF03BC0E6FF3CC09E
:1018F000E6FF3DC0E6FF12000A0E406ED70E416EB5
:10190000230E426E1200140E3BC0DBFF150E3CC0CE
:10191000DBFF160E3DC0DBFF1200F2C0EDF0F3C09E
:10192000EEF0F4C0EFF0F5C0F0F0120075C0B1F0C9
:1019300076C0B2F077C0B3F078C0B4F01200C9C07E
:101940003BF0CAC03CF0CBC03DF0CCC03EF0120032
:10195000BDC03BF0BEC03CF0BFC03DF0C0C03EF0DB
:1019600012002ADABE0E436E1200E1C03BF0E2C064
:101970003CF0E3C03DF0E4C03EF012003BC064F038
:101980003CC065F03DC066F03EC067F012003BC051
:1019900068F03CC069F03DC06AF03EC06BF01200D8
:1019A0003BC06CF03CC06DF03DC06EF03EC06FF0CF
:1019B00012003BC070F03CC071F03DC072F03EC000
:1019C00073F012003BC075F03CC076F03DC077F07C
:1019D0003EC078F012003BC0D9F03CC0DAF03DC008
:1019E000DBF03EC0DCF012003BC0DDF03CC0DEF0BE
:1019F0003DC0DFF03EC0E0F012003BC0E1F03CC073
:101A0000E2F03DC0E3F03EC0E4F01200FC0EDBCF9C
:101A10003CF0FD0EDBCF3DF04CEF20F0E66EFEEC2F
:101A20002FF0E5521200010EDBCF00F0020EDBCFEB
:101A300001F0026A1200F4D8ED50ED50ED501200A2
:101A40000001190ED56F040ED66F560ED76F120017
:101A5000D950010FE96EDACFEAFF000EEA22120038
:101A6000F36E040EF3CFDBFF020EDF6E1200D950CF
:101A7000140FE96E000EDA20EA6E1200EECF0CF0C1
:101A8000EECF0DF0EECF0EF012000001C56B400E50
:101A9000C66F1C0EC76F12000001CD0ECD6FCC0EAD
:101AA000CE6FCF6F1200E652E652E652E6521200B7
:101AB0003BC040F03CC041F03DC042F03EC043F06E
:101AC00012003BC000F004EF0FF0FA0EDBCFE9FF8D
:101AD000FB0EDBCFEAFF120090D903C03EF01200EC
:101AE000E66AE66A1FEC2AF0E552E552E552E55255
:101AF00012003BC008F03CC009F03DC00AF03EC0F7
:101B00000BF0120004C03BF005C03CF006C03DF0F5
:101B100007C03EF012003BC004F03CC005F03DC0E1
:101B200006F03EC007F01200ADDE450E77DDF8EF9F
:101B300020F03BC00CF03CC00DF03DC00EF03EC0AC
:101B40000FF0120052D951D950D94FD9F5EF0EF0FC
:101B5000040E3BC0DBFF050E3CC0DBFF060E3DC0A4
:101B6000DBFF070E3EC0DBFF70EF0BF03BC014F055
:101B70003CC015F03DC016F03EC017F0120008C082
:101B80003BF009C03CF00AC03DF00BC03EF0120033
:101B9000FC0EDBCFE9FFFD0EDBCFEAFF12000C0EDF
:101BA000DBCF00F00D0EDBCF01F00E0EDBCF02F02D
:101BB0000F0EDBCF03F01200100EDBCF00F0110E82
:101BC000DBCF01F0120EDBCF02F0130EDBCF03F000
:101BD0001200080E3BC0DBFF090E3CC0DBFF0A0E03
:101BE0003DC0DBFF0B0E3EC0DBFF12000C0E3BC006
:101BF000DBFF0D0E3CC0DBFF0E0E3DC0DBFF0F0E0A
:101C00003EC0DBFF12000ED90BEF0FF012DEC30E49
:101C100019EF0FF0DBCF07F00CDE430E5EEF0BF099
:101C2000D9CFE9FFDACFEAFF120014EC22F0010A63
:101C30001200E652B1C0E6FFB2C0E6FFB3C0E6FF55
:101C4000B4C0E6FF1AEF0BF0E926000EEA221200FC
:101C5000B4DC79C03BF07AC03CF07BC03DF07CC086
:101C60003EF01200AADC81C03BF082C03CF083C091
:101C70003DF084C03EF01200A0DC85C03BF086C081
:101C80003CF087C03DF088C03EF0120096DC89C071
:101C90003BF08AC03CF08BC03DF08CC03EF012009F
:101CA000E66E60EC2DF0E55212000CC03BF00DC06A
:101CB0003CF00EC03DF00FC03EF012003BC0EEFF06
:101CC00001C0EEFF02C0EEFF03C0EEFF1200D5C060
:101CD0003BF0D6C03CF0D7C03DF0D8C03EF012007B
:101CE00024C03BF025C03CF026C03DF027C03EF0AC
:101CF000120018C03BF019C03CF01AC03DF01BC0E8
:101D00003EF0120014C03BF015C03CF016C03DF090
:101D100017C03EF012003BC010F03CC011F03DC0B7
:101D200012F03EC013F01200E66EBDEC2EF0C1EFD3
:101D30000AF0E66E6CEC08F049EF0BF0E66EBDECD5
:101D40002EF049EF0BF0406A400E416E1C0E426EC1
:101D500012006ADDBF0E436E120063DCE652E652EB
:101D600012001F0E406E220E416EA00E426E390E02
:101D70001200EECF08F0EECF09F0EECF0AF012001D
:101D8000EECF04F0EECF05F0EECF06F01200406A81
:101D9000416AC80E426E420E436E1200406A416AAA
:101DA000200E426E410E436E1200EECF00F0EECFD9
:101DB00001F0EECF02F01200190E406E040E416EDB
:101DC000560E426E12002DDC53EF0DF086DCEFCF85
:101DD00003F012006DDE96DE62EC20F072DE65EF3D
:101DE0000DF066DE79DE62EF20F0C80E2AEF0BF010
:101DF0004BEC21F09EDE58EF0DF000C03BF001C02F
:101E00003CF002C03DF012003CC001F03DC002F0C9
:101E10003EC003F01200E552E7CF01F0E552E7CFF4
:101E200000F01200E552E7CF03F0E552E7CF02F0F1
:101E300012000EEC0BF01EEF0CF03BC020F03CC08B
:101E400021F03DC022F03EC023F0120052DE30DE11
:041E500082EF0DF020
:0C1E540084EC14F0A09A6A6A686A706A54
:101E6000E2EC14F002E2E16AE552E16E005031EC7E
:101E700015F0DF6A12EC15F003E2C2EC14F0FAD7A9
:101E80006D8C6E6A6D986D9C68A607D0689604018B
:101E9000496B4E6B4F6B506BF7D70401010E606FAF
:101EA000616F626B636B566BDF6A020EDF5C11E27F
:101EB000EA6ADF3498EC15F0EA22EE6AED6AEA6A23
:101EC000DF349FEC15F0EA22EE6AED6AD2EC14F0F2
:101ED000ECD70401080E416F040E426F160E706EAF
:101EE0000401200E026F040E036F080E016F840EB2
:101EF000006F0401376B366B87EF14F084EC14F03D
:101F00000401360507E16DBA05D0686A6980698801
:101F1000020E366F6850040B05E06950040B02E0B6
:101F20006894AFD86DB252D06850010B09E0695087
:101F3000010B06E08FDFA08A0401040E366F689063
:101F40006850100B05E06950100B02E089D86898C2
:101F500068AC14D069AC0AD038EC15F0730E8EEC76
:101F600014F002E2E16AE552E16E0050689C04015F
:101F70005E5101E05E075E5101E14CDA6850200BD2
:101F800004E06950200B01E058D86850020B13E0C0
:101F90006950020B10E038EC15F0E6687F0EE66E33
:101FA00069EC1FF0006E060EE15C02E2E16AE552A8
:101FB000E16E00506A6A040E0401E76E3619E8AE5D
:101FC00002D0E73402D0E750365D02E2A19A33D066
:101FD00069A630D0DF6A040EDF5C2CE268A62AD046
:101FE0006CCF57F404015751780BE842E842E842BD
:101FF000586F689657B504D05851ADEC15F003D022
:102000005851B2EC15F0EA22EF70585102E14CD869
:102010000FD0000EE66EE66A570EE66E040EE66E10
:10202000720E8EEC14F002E2E16AE552E16E0050AD
:10203000DF2AD1D7A19A87EF14F070A00FD0A8ECB7
:1020400014F0EF50800809E19BEC14F0EF50840885
:1020500004E1A8EC14F08C0EEF6E7090689A1200F8
:10206000698468986D820401010E566FF8EC14F0D3
:10207000750E8EEC14F002E2E16AE552E16E00505A
:1020800012000401566BF8EC14F0740E8EEC14F090
:1020900002E2E16AE552E16E00506D92699468A433
:1020A00002D06894FCD7120084EC14F004012D0EC9
:1020B0005E6FFD0E571540E17E0E5715E8407F0B11
:1020C000040DF3CF39F4F4CF3AF4000E3927040E9F
:1020D0003A2339C43BF43AC43CF43B75A8EC14F001
:1020E000EF503C0BE842E8420D0824E1DF6A080E9D
:1020F000DF5C1AE2A8EC14F0020EE926000EDCEC1C
:1021000014F0EF50E66EDF50EA6A200FE96E040E1D
:10211000EA22E552E750EF6EA8EC14F0C1EC15F09E
:10212000EE2AEF22DF2AE3D7A8EC14F05EEC15F0DC
:1021300009D807D02BD805D0FD0E5715040801E1AA
:1021400034D8E5D30401456B5F6B626B636B596BED
:10215000466B9BEC14F0EF9E41759BEC14F0EF9EE8
:1021600041754DEC15F0EF9E496B4A6B4B6B4E6B16
:102170004F6B506B53D8F8EC14F0030ECFDB02E238
:10218000E16AE552E16E0050BFEF12F0020E040169
:10219000465D02E12AEF13F0466B595104E1B0DBD2
:1021A0008C0EEF6E1200596B1200AEDBC4DBEF50E9
:1021B000400B01E0010EDF6E04014175080E365D33
:1021C00008E122C46EFF6E5002E0100E01D0040E32
:1021D000366F460513E1AFDBC0DBFED9020E04010A
:1021E000455D03E1A8DB840E07D0DF5003E1A3DBEC
:1021F000C80E02D0A0DB880EEF6E0FD04EAF0CD011
:102200005151521107E005D052C4FAFF0401515157
:10221000F96EFADF04014E9F466B79D30401205119
:10222000600BE842E842E842E842E842000901E087
:10223000120021510C0A4AE00B0A3FE00C0A31E07F
:10224000010A22E00B0A1EE0020A1CE0030A18E061
:10225000080A10E0010A0CE00F0A08E0030A01E096
:1022600012000401498F080E366F12004CEF12F075
:1022700089EF13F00401370E476F040E486F0CD03E
:1022800089EF12F067EF11F024510401476F486B9A
:10229000380E4727040E48234981010E4A6F498FA3
:1022A00012000401498F04012451EA6A380FE96ED3
:1022B000040EEA2222C4EFFF12009ADB020E2EDB8C
:1022C00002E2E16AE552E16E00501200120095EC64
:1022D00015F0E652E652E6520401220510E12051C3
:1022E0001F0B00090CE10401498F030E0401215D5D
:1022F00004E10401010E556F02D00401556B040185
:10230000225101E080D020511F0B020801E07BD058
:1023100024510F0B000901E176D024510F0B010865
:1023200072E3200E0401365D6EE1498F040124BF83
:1023300004D0EADB63DB68DB03D0EBDB5FDB68DB6D
:10234000EA22020EEFCFDBFF75DB010B02E1DF9427
:1023500001D0DF8424BF02D0D7DB01D0DADBEA2250
:10236000DECFEEFFDDCFEDFF030E215D0DE1D6DB0D
:1023700007E024BF02D048DB01D04ADBEA22EF822B
:10238000840EC6EC15F03FD0DF74C8DB0BE0CEDA6C
:10239000EF9ECCDAEF8C98DB02E2E16AE552E16E67
:1023A000005002D0C3DAEF8CDF7444DB020B02E191
:1023B000B5DB12E0040124BF02D026DB01D028DB0C
:1023C000EA22EF923B0E006ED2DB7EDB02E2E16A94
:1023D000E552E16E005002D03B0EC9DB04012451EE
:1023E0000F0B016A700F006E0F0E0122030E00C06A
:1023F000DBFF040E01C0DBFF030EDBCFE9FF040EA1
:10240000DBCFEAFFEF90050EE15C02E2E16AE55204
:10241000E16E64D30401605121E1010E606F6151EE
:102420001DE1010E616F020E465D07E184DAEE5296
:10243000EF6A81DAC80EEF6E120046050FE1596BA4
:1024400087DAEE52080EEF6E83DA38DB81DA840E1B
:10245000EF6E010E596F54DA800EEF6E1200040118
:10246000626B636B020E465D04E185DB76DA15DB99
:1024700010D04A510401265D04014B510401275933
:1024800004E226C44AF427C44BF4A6D854DA65DA29
:1024900052DAC80EEF6E1200800E0401205D38E1A2
:1024A0000401C00E496F04012351030A1AE0010A16
:1024B00009E0030A2BE10401B20E476F5B0E486F7F
:1024C000120E1ED0E3DA6F0EF6265C0EBBDA020E99
:1024D0000401D5DAF5CF4AF4030ED1DAF5CF4BF487
:1024E0001200030E225D0FE2D1DA710EF6265C0EA9
:1024F000A9DA47C4F6FF48C4F7FF0800F550040105
:102500004A6F4B6B12000401496B12000401496BC6
:1025100012000BDB0401286B296B20511F0B020AF0
:1025200011E0030A0CE0010A1EE10401498F0401D5
:1025300028810401550517E10401288314D0040102
:10254000498F11D00401498F040124BF02D0DCDA85
:1025500001D0DFDA53DAE2DA06E0E8D9EF50040B13
:1025600002E0010E286F040149AF07D0280E476F23
:10257000040E486F4981020E4A6FE552C8D16D982A
:10258000040149BF0DD04EAF09D0020E466F635112
:1025900001E165DF0401616B606B120074EF15F0FF
:1025A000040120AF0DD00401010E466F625101E11C
:1025B00056DF0401616B606B5F510DE10AEF12F0B1
:1025C0000401020E466F9CD9840EEF6E616B606B46
:1025D0005F5101E11FDF120097D9080EDF6E040181
:1025E0004A5D000E4B590AE24AC4DFFF455102E141
:1025F000010E03D0450502E1020E456FDF50016A6E
:10260000E8504A5D4A6F01504B594B6F94D9EE52D6
:10261000DFCFEFFF280E536F040E546F49B10DD07A
:10262000DF5017E047C4F6FF48C4F7FF472B000E02
:1026300048230800F550CFD9F3D7DF500AE047C44C
:10264000E9FF48C4EAFF472B000E4823EF50C3D9E7
:10265000F4D75DD16ADA7CD9EE52EFCFDFFFDFCF5E
:1026600000F0005004014F5D000E505902E24FC4CB
:10267000DFFFDF50006E016AE8504F5D4F6F015081
:102680005059506F010EDB6ADF50F36E010EDBCF45
:10269000F4FFF350F45C16E2010EDB50EA6A280FF7
:1026A000E96E040EEA22EF50E66E4CC4E9FF4DC419
:1026B000EAFF4C2B000E4D23E552E750EF6E010E62
:1026C000DB2AE2D7000ED8804F55000E50550DE2A0
:1026D00052DA43D93DD9EF50400B03E1DED9C80EA1
:1026E00002D0DBD9880EEF6E12D00AD9840EEF6EBD
:1026F0005151521107E005D052C4FAFF0401515163
:10270000F96EFADF04014E9F5F5101E183DEE5526D
:10271000FED0FAD80401498F55D902E2E16AE552A8
:10272000E16E0050DF6A7ED902E22CD9FCD76D8CB5
:10273000DF6A020EDF5C02E235D9FBD7010EE66EDE
:10274000E66AE66A380EE66E040E00DA02E2E16A34
:10275000E552E16E00506D9C0401080E416F040EBD
:10276000426F000E396F040E3A6F39C43BF43C6F70
:1027700022C437F4375102E1100E10D0010EE66E7C
:10278000E66A370EE66E040EE66E010EC7D802E268
:10279000E16AE552E16E00500401200E366FB7D0B9
:1027A000C4D9000EDE6E040EDD6EDDD8040DF4CF4C
:1027B00001F0D9CFE9FFDACFEAFFF350EE2601505E
:1027C000ED22B4D8EF9EFC0EDB5002E1D6D801D04A
:1027D000A0D8EA22DECFEEFFDDCFEDFFA7D8EF9C39
:1027E000A5D8040EE926000EEA22EF8CE5528FD020
:1027F0009CD9FC0EDBA402D0E66A2CD9FC0EDBA22D
:1028000003D0010EE66E26D9FD0EDB50016A700F73
:10281000006E0F0E01D98AD8FC0EDBCFEFFFE55218
:1028200076D083D9FD0EDB5002E15ED905D09BD86E
:1028300039D999D8010F36D9E55269D076D9FC0E2D
:10284000DB5002E066D801D098D8D8D8D9CFE9FFBC
:10285000DACFEAFFEE50ED1003E1F36AF46A21D01B
:1028600065D88FD9FA0EDBCFEEFFFB0EDBCFEDFF85
:102870005DD8EE52F90EDBCFEFFF400E78D9880E0F
:1028800085D9FC0EDB5002E044D801D076D8EA228C
:10289000EF74DECF00F0DDCF01F000C0F3FF01C028
:1028A000F4FFE55234D027D96DA812D03BD9400EA1
:1028B000EE16EE6AEE6AEE6A35D9EE7C2AD8EA2286
:1028C000EF74400E006E2ED90050EF162BD9EF7C1E
:1028D00005D16D6A696A0401366B12000401365134
:1028E0000EE16D6A696ABDD8D08EA28AA08AF28E86
:1028F0006DB602D06D86FCD70401010E366F120052
:102900003AD9DCD84DEF15F0F6D8E6521200E55270
:10291000E5D0FD0EEA6ADB3498EF15F0E66EE66A64
:1029200069EC1FF0006E060EE15C1200DECFE9FFDD
:10293000DDCFEAFF120041C4E9FF42C4EAFF120002
:1029400024510F0BE96EEA6AD890E936EA36120094
:1029500039C4E9FF3AC4EAFF120013D9280EEE6E1B
:10296000040EED6E1200FC0EDB50E824026EFD0E2C
:10297000DB50040DF35002241200FD0EEA6ADB3432
:102980009FEF15F0DF50040DF3CFE9FFF4CFEAFF1E
:10299000000EE926040EEA22EE6AEE6AEE6AEE6A9C
:1029A000DF2A1200DF50DED8EA22EF6ADF50D5D8E6
:1029B000EA22EF6ADF2A1200EA22EE50EFCFEAFFA6
:1029C000E96E1200010EE66EE66AE66A710EE66EC8
:1029D0000F0EA6EF15F0E66E53C4E9FF54C4EAFFEC
:1029E000532B000E5423E552E750EF6EDF06120022
:1029F000000EE66EE66AE66EE66A1200EA22EECFA6
:102A0000DEFFEDCFDDFF120024510F0BADEF15F00F
:102A100024510F0BB2EF15F0012200C0DEFF01C000
:102A2000DDFF1200DF50006E016A080E005C000E30
:102A300001581200D950020FE96E000EDA20EA6E3A
:102A4000EF501200F7220900F5CF47F40A00F5CF46
:102A500048F41200FD0EDBCFE6FFA2DEE552E552A0
:102A60001200160E6F6E9F0E6B6E7B0E696E12005B
:102A7000010EE66EE66A000EE66EE66A1200F76A7E
:102A80004725F66E4851F722080012002251F66ED3
:102A9000F76AD890F636F73612003BC4E9FF3CC41B
:102AA000EAFF1200040DF3CF00F0F4CF01F0000EA6
:102AB0000026040EB1DF840EC6EF15F062D8200E9A
:102AC000EE6E040EED6E1200020EE66EE66ADECFCA
:102AD000E6FFDDCFE6FF050E8EEF14F0E552E5CF01
:102AE000DAFFE7CFD9FF12000BDF8C0EEF6E23DF8A
:102AF000840EEF6E1200D9CFE6FFDACFE6FFE1CF0A
:102B0000D9FFE2CFDAFF12001BDF3D0EE926040EEB
:102B1000120016DF410EE926040E120007DFEF5007
:102B2000800B1200F6DEDCEF14F0EEDEE65212004F
:102B3000FE0BEA36E96E410EE926040E1200FE0B8A
:102B4000EA36E96E3D0EE926040E1200E66E8DECC3
:102B500030F0006E050EE15C1200EA6A5C0FE96E6F
:102B6000040E1200EA6A5A0FE96E040E1200DEDE4D
:102B7000E850EF16120091DFEE52080EEF6E4DEFA7
:102B800015F0020EE926000EEA221200CFDEE85010
:042B9000EF1212002E
:0C2B9400D9CFE6FFDACFE6FFE1CFD9FF92
:102BA000E2CFDAFF4B0EE12402E3E168E652E16E88
:102BB00066EC1AF0D950060F8BEC1AF00DEC1BF0F6
:102BC000DCEC1AF002E2E16AE552E16E0050DF6EE1
:102BD000D9500D0F8BEC1AF044EC1BF0DCEC1AF022
:102BE00002E2E16AE552E16E0050E76E010EE7CFC6
:102BF000DBFF56EC1BF03FEC1AF040EC1BF0000E34
:102C0000E66EE66A13EC1BF002E2E16AE552E16E61
:102C10000050190EDB5003E01A0EDB6A16D040ECB0
:102C20001BF0010EE66EE66A13EC1BF002E2E16AAD
:102C3000E552E16E0050190EDB5002E1030E01D0A7
:102C4000050EF36E1A0EF3CFDBFF010EDB0455E029
:102C5000FA0EDBCF00F0FB0EDBCF01F0FC0EDBCF7A
:102C600002F0FD0EDBCF03F01AEC1BF046E0800E05
:102C7000DF5C04E0010EDB50800804E1F0EC1AF0A8
:102C80007F0E5BD0DF040CE1130EDB500FE0EDDBB9
:102C90007F0EF7EC1AF0210E0701E26FE36B0DD007
:102CA000040EDF5C22E1130EDB5003E0BBEC1AF0F4
:102CB00004D0DBDB7F0EF7EC1AF01A0EDBA469D32D
:102CC0000C0EDB5001E165D390EC1AF030EC1BF0F8
:102CD000020E3BC0DBFF030E3CC0DBFF040E3DC019
:102CE000DBFF050E3EC0DBFF54D3010EDB500408B2
:102CF00016E173DB1AEC1BF003E1B7DB3F0E1DD0CE
:102D0000130EDB5004E020EC1BF004E106D020ECB5
:102D10001BF003E1BBEC1AF03CD3A7DB0DD00C0E8B
:102D2000DB500EE01A0EDB50010B0AE1210E070109
:102D3000E26FE36BF0EC1AF07F0EF7EC1AF029D398
:102D4000ABDB1AEC1BF002E1C1DB23D3D9501B0F24
:102D5000E2DB0DEC1BF05EEC2BF0006E060EE15C8E
:102D600002E2E16AE552E16E005089DB0C0EDB50B5
:102D700003E1180EDB6A16D030DB30EC1BF0140ECA
:102D80003BC0DBFF150E3CC0DBFF160E3DC0DBFF7A
:102D9000170E3EC0DBFF1A0EDB50040BE76E180E59
:102DA000E7CFDBFF1ADBF30E406E040E416E350EEB
:102DB000426E3F0E436E0DDB1DEC22F0010A17E15F
:102DC000010EE66EE66AD950140F27EC1BF0C2EC38
:102DD0002AF0006E060EE15C02E2E16AE552E16E65
:102DE00000504DDB1B0EDB061C0E01E2DB06F60E6F
:102DF000DBCF3BF0F70EDBCF3CF0F80EDBCF3DF046
:102E0000F90EDBCF3EF02EEC23F01D0E3AC0DBFFB7
:102E10001E0E3BC0DBFF1F0E3CC0DBFF200E3DC083
:102E2000DBFF1B0EDBCF3CF01C0EE6DB250E3BC0B0
:102E3000DBFF260E3CC0DBFF270E3DC0DBFF280E6C
:102E40003EC0DBFF36DBF60EDBCF40F0F70EDBCF0C
:102E500041F0F80EDBCF42F0F90ED2DB2EEC23F07E
:102E6000210E3AC0DBFF220E3BC0DBFF230E3CC02D
:102E7000DBFF240E3DC0DBFFD950210F85DB08E6C8
:102E8000010EEE5C800EEE58FF0EEE58FF0EEE586F
:102E90001AE3210EDBCF3BF0220EDBCF3CF0230EFA
:102EA000DBCF3DF0240EDBCF3EF03E34000E3E186B
:102EB00009E6D880FF0E3B547F0E3C54000E3D5473
:102EC000000E3E5402E266DBEED1D9501D0F5CDBF2
:102ED00008E6800EEE5CFF0EEE58FF0EEE58FF0E79
:102EE000EE580CE275DB03E0800E006E05D0D95081
:102EF0001B0F3DDB1FE1006A016A29D01D0EDBCFED
:102F00003BF01E0EDBCF3CF01F0EDBCF3DF0200E62
:102F1000DBCF3EF03E34000E3E1809E6D880800E2E
:102F20003B54000E3C54000E3D54000E3E5422E231
:102F30004FDB04E0800E006E016809D0D9501B0FF2
:102F400016DB02E1006A02D0800E006E016A390EC3
:102F500000C0DBFF3A0E01C0DBFF370EDB6A380E24
:102F6000DB6A2D0EDB6A2E0EDB6A2F0EDB6A300E5B
:102F7000DB6ACFD01D0EDBCF3CF01E0EDBCF3DF069
:102F8000370E3CC0DBFF380E3DC0DBFF210EDBCF30
:102F90003CF0220EDBCF3DF0390E3CC0DBFF3A0E99
:102FA0003DC0DBFF110EDBCF00F0120EDBCF01F0D6
:102FB0007F0E005E000E015A080E005E000E015AE0
:102FC000350E00C0DBFF360E01C0DBFF59DB350ECE
:102FD000DBCFE6FF360EDBCFE6FF25DB02E2E16A60
:102FE000E552E16E0050470E3AC0DBFF480E3BC091
:102FF000DBFF490E3CC0DBFF4A0E3DC0DBFF4CDA75
:10300000470EDBCF04F0480EDBCF05F0490EDBCFD7
:1030100006F04A0EDBCF07F004C040F005C041F0D7
:1030200006C042F007C043F0D4D961EC20F0430E53
:103030003BC0DBFF440E3CC0DBFF450E3DC0DBFF69
:10304000460E3EC0DBFF35DA470EDBCF40F0480EC0
:10305000DBCF41F0490EDBCF42F04A0ED1DAA3DAE2
:10306000390EDBCF3CF03A0EC7DA3BC008F03CC06B
:1030700009F03DC00AF03EC00BF03BDAD7DA61EC54
:1030800020F0C2DA16DA430EDBCF40F0440EDBCF7D
:1030900041F0450EDBCF42F0460EB2DA3BC00CF0F9
:1030A0003CC00DF03DC00EF03EC00FF022DA91D9C9
:1030B00062EC20F03F0E3BC0DBFF400E3CC0DBFF6C
:1030C000410E3DC0DBFF420E3EC0DBFF3F0EDBCFBB
:1030D00000F0400EDBCF01F0410EDBCF02F0420EDC
:1030E000DBCF03F0180E406E720E416E310E426E51
:1030F0003F0E436E6ED94BEC21F02D0E3BC0DBFF33
:103100002E0E3CC0DBFF2F0E3DC0DBFF300E3EC05D
:10311000DBFFC2D9370EDBCF3CF0380E6DDA43DA75
:10312000E8D957D961EC20F03B0E3BC0DBFF3C0EE9
:103130003CC0DBFF3D0E3DC0DBFF3E0E3EC0DBFF73
:103140003B0EDBCF04F03C0EDBCF05F03D0EDBCFBA
:1031500006F03E0EF2D9140F7ADA4FEC26F04AD977
:10316000D9502D0F69D962EC20F0CCD9370EDBCFC6
:1031700000F0380EDBCF01F00001800E011410E0EA
:103180003C683D68370EDBCF41F0380EDBCF42F0B4
:1031900001EC23F0370E3AC0DBFF380E3BC0DBFFFB
:1031A000290EDB6A2A0EDB6A800EF36E2B0EF3CF3C
:1031B000DBFF3F0EF36E2C0EF3CFDBFFD950370F42
:1031C000D6D919E0370EDB50010B04E006D9D950EF
:1031D000290F4ADAD950370F3EDA010E0F0B06E0FD
:1031E000EC52D890ED32EF32E806FAE1F6D8D95039
:1031F000140F3ADAE3D7130EDB5021E03B6A3C6A46
:10320000800E3D6E3F0E3E6E290EDBCF40F02A0E43
:10321000DBCF41F02B0EDBCF42F02C0EDBCF43F0A7
:10322000F8EC20F0F1D9290E3BC0DBFF2A0E3CC0A0
:10323000DBFF2B0E3DC0DBFF2C0E3EC0DBFF390E4B
:10324000DBCFE6FF3A0EDBCFE6FF290EDBCF04F043
:103250002A0EDBCF05F02B0EDBCF06F02C0E6DD93E
:103260002D0FF5D96CEC23F0C5D83BC0E6FF3CC070
:10327000E6FF3DC0E6FF3EC0E6FFC2EC2AF00C6E62
:10328000060EE15C02E2E16AE552E16E0C50310E9D
:103290003AC0DBFF320E3BC0DBFF330E3CC0DBFF2E
:1032A000340E3DC0DBFFD950060F35D9D950310F50
:1032B000CED982D902E2E16AE552E16E0050DF6EBA
:1032C000850EDF143CE0220E0701E26FE36BEED9BE
:1032D0003AC000F03BC001F03CC002F03DC003F03A
:1032E000BDD83AC03BF0C5D91DEC22F0010A03E17C
:1032F000130EDB5014E1DAD93AC004F03BC005F0FC
:103300003CC006F03DC007F0A9D83AC03BF0C2D996
:1033100014EC22F0010A12E1130EDB500FE1310E22
:10332000DB6A320EDB6A800EF36E330EF3CFDBFF07
:103330007F0EF36E340EF3CFDBFF01D02BD9180EC6
:10334000DB500FE0310EDBCF04F0320EDBCF05F0A7
:10335000330EDBCF06F0340EDBCF07F001D9A1D955
:103360000CD0310EDBCF00F0320EDBCF01F0330E8C
:10337000DBCF02F0340EDBCF03F0020E00C0DBFF28
:10338000030E01C0DBFF040E02C0DBFF050E03C00D
:10339000DBFFC6D800C03AF001C03BF002C03CF0F1
:1033A00003C03DF04B0EE15C02E2E16AE552E16EE2
:1033B000E552E5CFDAFFE7CFD9FF1200DA20EA6E57
:1033C000EECFE6FFEECFE6FFEECFE6FFEFCFE6FF74
:1033D000120000C03BF039EF1BF0140EDBCF00F001
:1033E000150EDBCF01F0160EDBCF02F0170EDBCF90
:1033F00003F01200E552E552E552E552E552E7CFFF
:1034000007F0E552E7CF06F0E552E7CF05F0E552C9
:10341000E7CF04F03AC008F03BC009F03CC00AF026
:103420003DC00BF03AC040F03BC041F03CC042F020
:103430003DC043F051EF1BF00ED9EECF3BF0EECF85
:103440003CF0EECF3DF0EFCF3EF000C040F001C0C9
:1034500041F002C042F003C043F01200406A416AEA
:10346000800E426E3F0E436E1200020EDB6A030EA8
:10347000DB6A800EF36E040EF3CFDBFF1200140E36
:103480003AC0DBFF150E3BC0DBFF160E3CC0DBFF76
:10349000170E3DC0DBFF1200F60EDBCF00F0F70E7B
:1034A000DBCF01F0F80EDBCF02F0F90EDBCF03F03B
:1034B0001200250EDBCF3BF0260EDBCF3CF0270EB3
:1034C000DBCF3DF0280EDBCF3EF01200D950FA0FD3
:1034D000E96EFF0EDA20EA6E020EEECFDBFF030E7E
:1034E000EECFDBFF040EEECFDBFF050EEECFDBFFF2
:1034F00012003BC040F03CC041F03DC042F03EC035
:1035000043F012003EC0EDFF3DC0EDFF3CC0EDFFBB
:103510003BC0EFFF1200E66E000EDA20E66E1200EE
:10352000020EDBCF00F0030EDBCF01F0040EDBCF89
:1035300002F0050EDBCF03F01200DBCF07F004C072
:10354000E6FF05C0E6FF06C0E6FF07C0E6FFD9506C
:10355000120078EC2FF0E552E552E552E5521200E8
:10356000406A416A800E426EBF0E436E120073D8ED
:10357000EE50ED101200020EDB6A030EDB6A040E41
:10358000DB6A050EDB6A120066D8D880030EEB50AA
:10359000FF0A1200310EDB6A320EDB6A330EDB6A81
:1035A000340EDB6A12003BC004F03CC005F03DC0A5
:1035B00006F03EC007F01200F0EC2BF0006E060E95
:1035C000E15C1200CCEC28F0006E080EE15C120009
:1035D0001B0E1C0EDBCF03F00001800E0314120043
:1035E000020EDB68030EDB68040EDB681200F36E6C
:1035F000050EF3CFDBFF1200DBCF3DF04EEF20F0E6
:10360000DBCF43F04BEF21F03BC000F03CC001F0BA
:103610003DC002F03EC003F01200D950FA0FE96E2F
:10362000FF0EDEEF19F030D8E2EF1AF004C03BF0E5
:103630004AEF1BF013DFCDDE65EC23F0010A120028
:10364000CCDE0CDFC6DE1DEC22F0010A1200E96EB2
:10365000000EDEEF19F0E96E000EDA20EA6E1200BD
:103660007FDFB7DE4BEF21F0E7DE4BEC21F082EF9E
:103670001AF001C03CF002C03DF003C03EF0120061
:10368000D950190F8BEF1AF0D950F60FE96EFF0ED3
:10369000DEEF19F005C03CF006C03DF007C03EF07B
:1036A0001200C4DF4BEC21F004EF1BF0B6DFA9EFF2
:0236B0001AF00E
:0E36B200E9CFE4FFEACFE4FFF6CFE4FFF7CF65
:1036C000E4FFF5CFE4FFF3CFE4FFF4CFE4FFFACF5C
:1036D000E4FF00EE34F0140EE80403E3EECFE4FF61
:1036E000FBD700EE00F0340EE80403E3EECFE4FF76
:1036F000FBD7E6529EA016D00001FD5108E182845E
:10370000010EFD6FEDC0E6FFEEC0E6FF06D082942D
:10371000FD6BEFC0E6FFF0C0E6FF39EC30F0E5529C
:10372000E5529E90A1AA02D07EEC0FF0E55200EE89
:1037300033F0340EE80403E3E5CFEDFFFBD700EEF2
:1037400047F0140EE80403E3E5CFEDFFFBD7E5CF28
:10375000FAFFE5CFF4FFE5CFF3FFE5CFF5FFE5CFC7
:10376000F7FFE5CFF6FFE5CFEAFFE5CFE9FF110070
:10377000D8CFE4FFE0CFE4FFE46EE652E552E55037
:10378000E5CFE0FFE5CFD8FF10000CD8960E26EC71
:1037900020F082BC02D028EC00F06EEC14F09D808A
:1037A0002ED9FED7E4EC1FF0E652300EE66E90EC18
:1037B0002EF0E552806A816A826A846A9268010EFC
:1037C000936E949E948C94909494800EE66EE66A28
:1037D000010EE66EABEC2FF0E552E552E552818426
:1037E000818681880B0EE66E140EE66EDF0EE66EA5
:1037F00041EC2FF0E552E552E5520001F86BF96B10
:10380000FA6BFB6B2AEC0FF0BF0EE66E200E13EC8A
:1038100020F0080EE66E210E13EC20F0900EE66EFE
:10382000230E13EC20F0030EE66E240E13EC20F0B2
:10383000C00EE66E42EC2AF0E552100EE66E71EC18
:1038400030F0E5529C0EE66E150EE66E55EC30F04B
:10385000E552E552D59E650EE66EDDEC2FF0E552A1
:10386000CD90D08EF29EF29C9F809D80F2949E908F
:10387000100EE66E60EC2DF0E552FF0801E0BCD0C2
:10388000DF6A060EE66E070E3EEC20F002E0000E48
:1038900001D0010EDF24DF6E070EE66E380E3EEC1F
:1038A00020F002E0000E01D0010EDF24DF6E080ED2
:1038B000E66E360EE3DB02E0000E01D0010EDF24DF
:1038C000DF6E090EE66EB00ED9DB02E0000E01D00D
:1038D000010EDF24DF6E0A0EE66EF90ECFDB02E08A
:1038E000000E01D0010EDF24DF6E0B0EE66E2F0EF0
:1038F000C5DB02E0000E01D0010EDF24DF6E0C0EEE
:10390000E66E060EBBDB02E0000E01D0010EDF24E6
:10391000DF6E0D0EE66ED10EB1DB02E0000E01D0BF
:10392000010EDF24DF6E0E0EE66E430EA7DB02E013
:10393000000E01D0010EDF24DF6E0F0EE66E260EA4
:103940009DDB02E0000E01D0010EDF24DF6E100EC1
:1039500098DB02E0000E01D0010EDF24DF6E110EB5
:1039600090DB02E0000E01D0010EDF24DF6E120EAC
:1039700088DB02E0000E01D0010EDF24DF6E130EA3
:10398000E66E020E7BDB02E0000E01D0010EDF24AA
:10399000DF6E140EE66EBC0E71DB02E0000E01D08D
:1039A000010EDF24DF6E150E6CDB02E0000E01D08D
:1039B000010EDF24DF6E160EE66EA00E5FDB02E066
:1039C000000E01D0010EDF24DF6E170E5ADB02E07D
:1039D000000E01D0010EDF24DF6E180E52DB02E074
:1039E000000E01D0010EDF24DF6EDF5005E0010E76
:1039F000E66E43EC08F0E5528280E55207D3E4DA44
:103A0000230EE12402E3E168E652E16E200E040198
:103A1000E76E3619E8AE02D0E73402D0E750365DE3
:103A200001E217D26D50020B01E013D20001F851F0
:103A3000F91102E1000E08D0F8C0E9FFF9C0EAFF71
:103A4000EF50800B01E0010E000901E002D285DA9F
:103A500005010051880A01E1A1D10D0A01E1CED092
:103A6000010A01E171D0070A5BE0010A25E0030ABF
:103A700001E0EAD100C540F5010E416F020EDF6E94
:103A80001B0EDF5C0BE2020EDF5CE66E60EC2DF0DD
:103A9000E552E66EDF50D1DADF2AF2D7CADA02E168
:103AA000000E03D08ADA01E0010E000901E0CCD15A
:103AB00075DA01E3C8D1C5D1010EDB6A00C540F556
:103AC000416FF36E020EF3CFDBFF1A0EF36E020EA0
:103AD000CBDA13E2020EDB04E66E020EDB50EA6A7A
:103AE000000FE96E050EEA22EF50E66E0BEC2DF0AA
:103AF000E552E552020EDB2AE8D7010EDB5002E068
:103B00000501416B96DA02E1000E03D056DA01E0BE
:103B1000010E000901E098D141DA01E394D191D17D
:103B200000C540F5010E416F52EC2AF082DA02E145
:103B3000000E03D042DA01E0010E000901E084D159
:103B40002DDA01E380D17DD1D950030F006E000E34
:103B5000DA20016E110E00C0DBFF120E01C0DBFF88
:103B600000C540F5D950030FE66E000EDA20E66E70
:103B7000ABEC04F0E552E5529F0EE66E6CEC08F0FB
:103B8000E5520F0EF3CFDBFF020EF36E100EF3CFF4
:103B9000DBFF0E0EF36E100E67DA13E2110EDBCFB1
:103BA000E9FF120EDBCFEAFFEF50E66E100EDB509E
:103BB00044DA110EDB2A120E01E3DB2A100EDB2A97
:103BC000E8D70F0EDBCF00F0FF0E001405014E6F9B
:103BD0000F0EDB50016A01C000F0016A00C04FF512
:103BE00028DA02E1000E03D0E8D901E0010E000955
:103BF00001E02AD1D3D901E326D123D1140EDB6A07
:103C0000150EDB6A160EDB6A1A0EDB6A1B0EDB6A08
:103C10001C0EDB6A080EF36E1D0EF3CFDBFF8290E5
:103C200000C540F5E66AE66AE66A2FEC2AF0E5523E
:103C3000E552E552000901E09FD00501416BF9D939
:103C400002E1000E03D0B9D901E0010E000905E13F
:103C5000A5D902E2E16AE552DFD9280EF7D91A0E9A
:103C6000DB6A1B0EDB6A1A0EDBCF00F01B0EDBCF0C
:103C700001F01C0EDBCF02F01D0EDBCF03F0025073
:103C8000005C0350015801E387D0D9501E0FE96E44
:103C9000DACFEAFF000EEA22400EEE6E050EED6E60
:103CA0008194030EE6D9100E98D906E0D89002321E
:103CB00001320032E806FAE10050DBD9080E8DD956
:103CC00006E0D890023201320032E806FAE10050F4
:103CD000D0D9140EDBCFE6FFFEEC2FF0E552130E29
:103CE000DB6A400EF36E130EBFD914E2A7EC30F07E
:103CF000E66E1E0EDBCFE9FF1F0EDBCFEAFFE552BB
:103D0000E750EF6E1E0EDB2A1F0E01E3DB2A130EB7
:103D1000DB2AE7D781848DD902E1000E03D04DD98B
:103D200001E0010E000905E139D902E2E16AE5523C
:103D300073D9140EDBCF00F0150EDBCF01F0160E99
:103D4000DBCF02F0400E0026000E01220222140EEC
:103D500000C0DBFF150E01C0DBFF160E02C0DBFF4B
:103D6000FA0EE66EF3EC30F0E5521A0EDB2A1B0E6B
:103D700001E279D7DB2A77D7050141695AD902E1F7
:103D8000000E03D01AD901E0010E000905E106D9A1
:103D900002E2E16AE55240D9828056D000C540F582
:103DA00001C509F00A6A0B6A100E1F0B01C506F067
:103DB0000AC007F00BC008F006E0D89006360736B8
:103DC0000836E806FAE102C50DF00C6A0E6A0650E4
:103DD0000C10036E07500D10046E08500E10056E87
:103DE00003C50FF0106A116A03500F10006E0450E3
:103DF0001010016E05501110026E200E00C0DBFF86
:103E0000210E01C0DBFF220E02C0DBFF200EDBCF44
:103E1000E6FF210EDBCFE6FF220EDBCFE6FF2FEC25
:103E20002AF0E552E552E5520501416F02D902E15F
:103E3000000E03D0C2D801E0010E000905E1AED8A2
:103E400002E2E16AE552E8D8D8D802E2E16AE55236
:103E500004D9230EE15C02E2E16AE552E16ED6D0BC
:103E6000120012001200120075EF2DF012001E0E4B
:103E7000E66E010EE66EF8EC13F0E552E552BDD8A1
:103E800002E2E16AE5522DEF20F00401550520E140
:103E9000040156051DE1A09AE4DF6D920401566B02
:103EA0000001100EF66F0E0EF76FF607000EF75BAF
:103EB000F651F711FAE16D84080EF66F070EF76FF1
:103EC000F607000EF75BF651F711FAE16D94A08A40
:103ED00012007AD8FC0EDBCF3CF0FD0EDBCF3DF0BC
:103EE000050E3C1801E13D5036E0E8683C1802E15F
:103EF0007F0E3D182FE0030E3C1801E13D5028E0F5
:103F0000020E3C1801E13D5021E0010E3C1801E198
:103F10003D501AE0740E3C1801E13D5013E0750E5F
:103F20003C1801E13D500CE0730E3C1801E13D509E
:103F300005E0720E3C180FE13D500DD093DF0BD021
:103F40008FDF09D08EDF07D092DF05D08FDF03D05F
:103F50008BDF01D088DF010E59D036D8E652E65209
:103F6000DE6ADD6ADE6ADD6ADECF00F0DDCF01F0F9
:103F7000400E005C000E01580EE2DECFE9FFDDCFFF
:103F8000EAFF400EE926050EEA22EF6ADF2A010E5B
:103F9000EBE3DB2AE9D7E552E55238D0400EE66E76
:103FA000400EE66E050EE66E010EE66E6ED00BEC70
:103FB0002DF0E552E55200091200FAC0E9FFFBC0FE
:103FC000EAFFEF50800B1200D9CFE6FFDACFE6FF11
:103FD000E1CFD9FFE2CFDAFF1200036ED950140F00
:103FE000E96E000EDA20EA6E03501F0BEECF00F0F0
:103FF000EECF01F0EECF02F01200400EE66E000EA2
:10400000E66E050EE66EE66A010E3FD0E552E5CF9C
:10401000DAFFE7CFD9FF1200E16E0050F3CFFAF0DC
:10402000F4CFFBF01200E66EADEC2EF0E552E55257
:1040300012000001FA51FB111200EA6A400FE96E0A
:10404000050EEA22E552E750EF6E1200E66EE66AD0
:104050003CEC2EF0E552E5521200E16E0050F3CF39
:10406000F8F0F4CFF9F01200DBCFF4FFF350F45C7A
:104070001200E66EFEEC2FF0E5521200E66ED7EF6E
:104080001FF0E66EE66AD7EF1FF0E66E1EEC14F046
:08409000006E050EE15C120058
:08409800359E08D0359E3DAEB7
:1040A00005D03C6C3D1EE86A3D22358E3DC037F0A0
:1040B0003CC036F0476A466A8E0E386E396A97EF12
:1040C00022F0437E356AD3EC22F0EBEC22F035B6D9
:1040D0007BEF22F035A20AD035AA03D035BE7BEFA4
:1040E00022F035A487EF22F084EF22F035AA05D024
:1040F00035AC87EF22F084EF22F035A00AD035A846
:1041000008D035BE04D035A402D090EF22F094EF51
:1041100022F0466A396A43503E5C456E10E33BC06C
:1041200047F03CC036F03DC037F03EC044F040C0E0
:104130003BF041C03CF042C03DF0353A09D040C0B0
:1041400047F041C036F042C037F043C044F0456C00
:10415000359E35BC358E44C038F035B0C3EF22F003
:104160001A0E4560C3EF22F0386A3E6A35A408D0C3
:104170003B6C3C1E3D1E3E1EE86A3C223D223E2218
:1041800035AC08D0476C361E371E381EE86A36221A
:10419000372238223A6A455207E03E343D323C32FB
:1041A0003B323A32452EF9D73B5047263C50362217
:1041B0003D5037223E5038223AC046F0359E38AE48
:1041C0000BD0466C471E361E371E381EE86A472243
:1041D000362237223822358E38A006D0D8803732A2
:1041E000363247324632442A44C038F097EF22F044
:1041F000356AD3EC22F0EBEC22F035B67BEF22F0FF
:1042000035A205D035BA7BEF22F082EF22F035BA25
:104210008EEF22F035A005D035B87BEF22F08EEF7F
:1042200022F035B882EF22F0396A7F0E3E24386ED4
:10423000E86A39224350385EE86A395A1A0E446EE9
:104240003E6A466A476A366A376A40503B5E41506A
:104250003C5A42503D5A000E3E5A09E740503B2618
:1042600041503C2242503D22000E3E2201D0468A5F
:10427000D8903B363C363D363E36D89046364736AB
:1042800036363736442EE1D73D503C103B10D8A48B
:10429000468A97EF22F0356AD3EC22F0EBEC22F05D
:1042A00035B67BEF22F035A205D035B87BEF22F092
:1042B00082EF22F035AA05D035B07BEF22F082EFF5
:1042C00022F035B002D035A802D08EEF22F0396A44
:1042D00043503E24386EE86A39227E0E385EE86A22
:1042E000395A466A476A366A376A42503D02F4CF05
:1042F00037F0F3CF36F041503D02F3504726F450EB
:104300003622000E372242503C02F3504726F4502A
:104310003622000E372240503D02F3504626F4501C
:104320004722000E3622372241503C02F3504626E7
:10433000F4504722000E3622372242503B02F350FF
:104340004626F4504722000E3622372240503C02C7
:10435000F4504626000E47223622372241503B02B7
:10436000F4504626000E47223622372297EF22F0DD
:10437000346A42AEC3EF21F0406C411E421EE86A2F
:1043800041224222341E3DAECDEF21F03B6C3C1E5B
:104390003D1EE86A3C223D22341E1CEC30F03DBE3E
:1043A000E0EF21F034AE000C3B6C3C1E3D1EE86A91
:1043B0003C223D22376C381E391E38223922000C2F
:1043C00034BED4EF21F03588FF0C356AD3EC22F0EF
:1043D00035B6EFEF21F035A20ED035B405D07F0E03
:1043E0003D6EFF0E3C6E1FD0800E3D6E3C6A1BD0B2
:1043F0003D6A3C6A18D035B0FBD78F0E3E60EDD7D2
:104400007E0E3E64F5D78E0E3E5C05E0D8903D32C0
:104410003C323E2AF8D735A406D03C6C3D1EE86AF3
:104420003D223DAEE5D7120026EC22F035B6000C59
:1044300035B0000C35B4000C010C26EC22F035B67A
:10444000000C35B0000C35A4000C010C356AD3EC1F
:1044500022F0EBEC22F035B6120035AE08D035A0D4
:1044600004D035A802D03580120035901200435098
:104470003E5C0BE142503D5C08E141503C5C05E193
:1044800040503B5C02E135801200D8A002D0358E4E
:1044900010D03E5043C03EF0436E3D5042C03DF010
:1044A000426E3C5041C03CF0416E3B5040C03BF03E
:1044B000406E43503E5C10E0FF0F09E0359035B48C
:1044C00003D035AE3584120035AE35941200432A40
:1044D000D89042324132403240503B5E41503C5ACB
:1044E00042503D5A3DBEEAD7D8903B363C363D3629
:1044F0003E2EF8D7C8D77F0E3E6EFF0E3D6E3C6E47
:104500003B6E12007F0E35BEFF0E3E6E02D07F0E58
:104510003E6E800E3D6E3C6A3B6AF3D735AE04D0EA
:10452000800E3E6E3D6AF7D73E6A3D6AF4D737503B
:10453000361047104610F8E039BEF0D737BE0CD021
:1045400038503910EBE0D890463647363636373695
:104550003806D8A03906F2D73950D4E13828D2E04D
:1045600046AE11D07F0E461402E147A00CD0472A78
:10457000E86A3622372207E3D880373236324732AC
:10458000382A3828BFE03850C9E047C03BF036C071
:104590003CF037343D6E38303E6E3D323E9E35BE87
:1045A0003E8E81EF22F03D363E3602E33584357E85
:1045B00006E135803E6A3D6A3C6A3B6A12003E284D
:1045C00003E0D8803D321200D8903D3202E13582BE
:1045D0001200358612004236433602E3358C357EB2
:1045E00006E13588436A426A416A406A12004328FC
:1045F00003E0D88042321200D8904232EAE1358A94
:1046000012003DC047F03CC046F03C504102F4CFA0
:104610003BF0F3CF3AF03D504202F4CF3DF0F3CF00
:104620003CF04102F3503B26F4503C22E86A3D2224
:1046300046504202F3503B26F4503C22E86A3D22A9
:1046400042AE27EF23F046503C5E47503D5A47AEFE
:10465000000C41503C5E42503D5A000C356AD3EC90
:1046600022F035B638EF23F035A20FD035B407D09D
:104670007F0E3D6EFF0E3C6E3B6E3A6E25D0800E77
:104680003D6E01D03D6A000EF6D735B0FBD73A6AD1
:104690009F0E3E60EBD77E0E3E64F4D79E0E3E5CCE
:1046A00007E0D8903D323C323B323A323E2AF6D7D0
:1046B00035A40AD03A6C3B1E3C1E3D1EE86A3B22E4
:1046C0003C223D223DAEDED7120026EC22F035B66C
:0846D000000C35B0010C000CD8
:0846D800D9CFE6FFDACFE6FFBF
:1046E000E1CFD9FFE2CFDAFF260EE12402E3E16851
:1046F000E652E16ED950FA0FE96EFF0EDA20EA6E4B
:10470000010EEECFDBFF020EEECFDBFF030EEECF8E
:10471000DBFF040EEECFDBFF050EDB6A060EDB6A65
:10472000800EF36E070EF3CFDBFF330EF36E080E31
:10473000F3CFDBFFD950090FE66E000EDA20E66EEC
:1047400098DAF0EC2BF0006E060EE15C02E2E16A12
:10475000E552E16E0050DF6E800EDF5C07E1010E76
:10476000DB68020EDB68030EDB681DD0DF0466E049
:10477000040EDF5C05E10F0EDB5001E1D5D127D03F
:1047800007DA170E406E720E416EB10E426E420E87
:10479000436EEAD914EC22F0010A07E1220E070168
:1047A000E26FE36B4ADA7F0E4BD0F2D9D80E406E3F
:1047B0008E0E416ECE0E426EC20E436ED5D91DECEA
:1047C00022F0010A0DE1220E0701E26FE36B010EF8
:1047D000DB6A020EDB6A030EDB6A040EDB6AA4D11D
:1047E000D950FA0FE96EFF0EF1D978EC2FF0E552AF
:1047F000E552E552E5523AC000F03BC001F03CC042
:1048000002F03DC003F0050EDBCF04F0060EDBCF57
:1048100005F0070EDBCF06F0080EDBCF07F004C073
:1048200040F005C041F006C042F007C043F03AC076
:104830003BF025DA1DEC22F0010A07E1FED93F0E1C
:10484000F36E040EF3CFDBFF6FD1A2D93B0E406EA7
:10485000AA0E416EB80E426E3F0E436E85D9C1D985
:1048600087D9436A81D91DEC22F0010A04E10EDAEE
:1048700061EC20F003D00ADA62EC20F0E5EC21F0E4
:104880001C0E3CC0DBFF1D0E3DC0DBFF1C0EDBCF52
:104890003CF01D0EDBCF3DF04EEC20F0D8D9406A45
:1048A000416A800E426EBF0E436E9BD9FA0EDBCF7B
:1048B00004F0FB0EDBCF05F0FC0EDBCF06F0FD0EA7
:1048C000DBCF07F01E0EDBCF0CF01F0EDBCF0DF0A1
:1048D000200EDBCF0EF0210EDBCF0FF0406A800EF2
:1048E000416E310E426E3F0E436E0CC03BF00DC068
:1048F0003CF00EC03DF00FC03EF04BEC21F03BC051
:1049000008F03CC009F03DC00AF03EC00BF055D99C
:10491000A7D962EC20F09BD91E0EDBCF14F01F0E3E
:10492000DBCF15F0200EDBCF16F0210EDBCF17F01A
:10493000830E406E800E416E5E0E426EB90E436E67
:1049400014C03BF015C03CF016C03DF017C03EF05F
:104950004BEC21F03BC010F03CC011F03DC012F018
:104960003EC013F098D9180E3BC0DBFF190E3CC0B7
:10497000DBFF1A0E3DC0DBFF1B0E3EC0DBFF180E37
:10498000DBCF3BF0190EDBCF3CF01A0EDBCF3DF056
:104990001B0EDBCF3EF034D9220E3BC0DBFF230ED3
:1049A0003CC0DBFF240E3DC0DBFF250E37D9080ECF
:1049B000406E530E416E880E426E3B0EF6D8800E4E
:1049C000426E3E0E436E62EC20F01AD9100E3BC0D0
:1049D000DBFF110E3CC0DBFF120E3DC0DBFF130EF0
:1049E0001DD95B0E406EBF0E416E4C0E426E3D0EE9
:1049F000DCD8426A3F0E436E62EC20F0140E3BC0DE
:104A0000DBFF150E3CC0DBFF160E3DC0DBFF170EB3
:104A10003EC0DBFF006A016A026A3F0E036E100EA1
:104A2000DBCF08F0110EDBCF09F0120EDBCF0AF05E
:104A3000130EDBCF0BF0140EDBCF10F0150EDBCF17
:104A400011F0160EDBCF12F0170EDBCF13F0100EA5
:104A5000DBCF14F0110EDBCF15F0120EDBCF16F00A
:104A6000130EDBCF17F014C040F015C041F016C094
:104A700042F017C043F010C03BF011C03CF012C030
:104A80003DF013C03EF061EC20F03BC00CF03CC0A8
:104A90000DF03DC00EF03EC00FF08FD808C03BF0C7
:104AA00009C03CF00AC03DF00BC03EF0F8EC20F02D
:104AB0003BC004F03CC005F03DC006F03EC007F02E
:104AC000EAD8010E3BC0DBFF020E3CC0DBFF030E49
:104AD0003DC0DBFF040E3EC0DBFF010EE76E1C0E87
:104AE000DBCF00F01D0EDBCF01F0E7500026000EFB
:104AF000012200C0E6FF01C0E6FFBBD8C2EC2AF0ED
:104B0000026E060EE15C02E2E16AE552E16E0250DD
:104B1000010E3AC0DBFF020E3BC0DBFF030E3CC0C0
:104B2000DBFF040E3DC0DBFF010EDBCF00F0020E09
:104B3000DBCF01F0030EDBCF02F0040EDBCF03F07E
:104B400000C03AF001C03BF002C03CF003C03DF0B1
:104B5000260EE15C02E2E16AE552E16EE552E5CF44
:104B6000DAFFE7CFD9FF120000C03BF03FEF26F09D
:104B70001E0EDBCF00F01F0EDBCF01F0200EDBCFCF
:104B800002F0210EDBCF03F0406A416A426A120054
:104B9000FA0EDBCF00F0FB0EDBCF01F0FC0EDBCF1B
:104BA00002F0FD0EDBCF03F01200436E59D84BEC40
:104BB00021F04DD8406A416A12003BC040F03CC031
:104BC00041F03DC042F03EC043F01200DA20EA6EF0
:104BD000EECFE6FFEECFE6FFEECFE6FFEFCFE6FF4C
:104BE00012004BEC21F01E0E3BC0DBFF1F0E3CC041
:104BF000DBFF200E3DC0DBFF210E3EC0DBFF1200BD
:104C0000180EDBCF40F0190EDBCF41F01A0EDBCFD0
:104C100042F01B0EDBCF43F04BEF21F03EC0DBFF39
:104C2000220EDBCF04F0230EDBCF05F0240EDBCF0A
:104C300006F0250EDBCF07F01200010EDB6A020E34
:104C4000DB6A800EF36E030EF3CFDBFF12003BC076
:104C500000F03CC001F03DC002F03EC003F0120085
:104C600004C03BF005C03CF006C03DF007C03EF07C
:104C70001200D950010FE96E000EE6EF25F001C0D9
:104C80003CF002C03DF003C03EF0120071DF3F0E69
:0E4C9000436EB4EF25F091DF67DF62EF20F096
:024C9E00D9CF6C
:104CA000E6FFDACFE6FFE1CFD9FFE2CFDAFF260E4B
:104CB000E12402E3E168E652E16ED950050FE1D943
:104CC000F0EC2BF0006E060EE15C02E2E16AE552C8
:104CD000E16E0050DF6E800EDF5C05E00B0EDB50F6
:104CE00012E0DF0410E0210E0701E26FE36B010E1A
:104CF000DB68020EDB68030EDB687F0EF36E040ECA
:104D0000F3CFDBFF8FD1040EDF5C0EE13EDA010E44
:104D1000EECFDBFF020EEECFDBFF030EEECFDBFFAD
:104D2000040EEECFDBFF7ED1DF0410E1210E070180
:104D3000E26FE36B010EDB6A020EDB6A800EF36E3C
:104D4000030EF3CFDBFF040EDB686CD1D9500C0FE0
:104D500098D95EEC2BF0006E060EE15C02E2E16A8F
:104D6000E552E16E0050FA0E3AC0DBFFFB0E3BC08D
:104D7000DBFFFC0E3CC0DBFFFD0E3DC0DBFFA6D918
:104D8000F30E406E040E416E350E426E3F0E87D913
:104D900014EC22F0010A09E1B3D984D961EC20F0C6
:104DA00067D9EDD984D9ACD916D00C0EDB060D0E1F
:104DB00001E2DB068BD9406A416A426A3F0E6FD935
:104DC00076D9160EDBCF04F0170EDBCF05F0180EE8
:104DD000DBCF06F0190E66D94BEC21F049D9CFD9BB
:104DE00062EC20F01A0E3BC0DBFF1B0E3CC0DBFF69
:104DF0001C0E3DC0DBFF1D0E3EC0DBFF160EDBCFE1
:104E00003BF0170EDBCF3CF0180EDBCF3DF0190E58
:104E1000DBCF3EF01A0EDBCF40F01B0EDBCF41F0B4
:104E20001C0EDBCF42F01D0EDBCF43F0F8EC20F080
:104E30001FD9120E3BC0DBFF130E3CC0DBFF140E6C
:104E40003DC0DBFF150E3EC0DBFF4DD9120EDBCFA0
:104E500040F0130EDBCF41F0140EDBCF42F0150E05
:104E600062D90E0E3BC0DBFF0F0E3CC0DBFF100E05
:104E70003DC0DBFF110E3EC0DBFF3D0EF36E1E0E8C
:104E8000F3CFDBFF7E0EF36E1F0EF3CFDBFF0D0EB5
:104E9000F36E200EF3CFDBFFBF0EF36E210EF3CFC8
:104EA000DBFF0E0EDBCF00F00F0EDBCF01F0100E9C
:104EB000DBCF02F0110EDBCF03F03A0E406E3F0E57
:104EC000416ED40E426EC00EEAD862EC20F0220E83
:104ED0003BC0DBFF230E3CC0DBFF240E3DC0DBFFED
:104EE000250E3EC0DBFF0E0EDBCF3BF00F0EDBCFFF
:104EF0003CF0100EDBCF3DF0110EDBCF3EF01E0E6E
:104F0000DBCF40F01F0EDBCF41F0200EDBCF42F0B5
:104F1000210E09D9220EDBCF40F0230EDBCF41F06A
:104F2000240EDBCF42F0250EDBCF43F0F8EC20F06F
:104F300007D9120EDBCF00F0130EDBCF01F0140EF9
:104F4000DBCF02F0150EDBCF03F0CDD8010EDBCFA7
:104F500040F0020EDBCF41F0030EDBCF42F0040E37
:104F6000E2D83BC004F03CC005F03DC006F03EC0B6
:104F700007F078D8046A800E056E310E066E3F0E7B
:104F8000076EC9D83BC008F03CC009F03DC00AF02C
:104F90003EC00BF0CCD8E1D84BEC21F069D8830EA1
:104FA000146E800E156E5E0E166EB90E176EB3D8A7
:104FB0003BC018F03CC019F03DC01AF03EC01BF0D9
:104FC000B6D814C03BF015C03CF016C03DF017C079
:104FD0003EF04BEC21F03BC010F03CC011F03DC066
:104FE00012F03EC013F0010EDBCF1CF0020EDBCF3F
:104FF0001DF0030EDBCF1EF0040EDBCF1FF01CC034
:1050000040F01DC041F01EC042F01FC043F062ECF2
:1050100020F03BC00CF03CC00DF03DC00EF03EC097
:105020000FF020D8010EDBCF00F0020EDBCF01F035
:10503000030EDBCF02F0040EDBCF03F000C03AF02A
:1050400001C03BF002C03CF003C03DF0260EE15C25
:1050500002E2E16AE552E16EE552E5CFDAFFE7CF21
:10506000D9FF120064D882D862EC20F0A0EF28F0BB
:105070003BC000F03CC001F03DC002F03EC003F078
:105080001200E66E000EDA20E66E7FD8EECFE6FF65
:10509000EECFE6FFEECFE6FFEFCFE6FF1200436E66
:1050A000B6EF28F0DBCF07F06AD8ADEF28F061EC5F
:1050B00020F0160E3BC0DBFF170E3CC0DBFF180EC6
:1050C0003DC0DBFF190E3EC0DBFF1200FA0EDBCF46
:1050D00000F0FB0EDBCF01F0FC0EDBCF02F0FD0E8B
:1050E000DBCF03F01200120EDBCF3BF0130EDBCF51
:1050F0003CF0140EDBCF3DF0150EDBCF3EF012007E
:10510000FA0EDBCF04F0FB0EDBCF05F0FC0EDBCF9D
:1051100006F0FD0E12000C0EDBCF3CF00D0EDBCFC7
:105120003DF04EEF20F0DBCF43F04BEF21F03BC0E2
:1051300040F03CC041F03DC042F03EC043F01200A0
:10514000010E3BC0DBFF020E3CC0DBFF030E3DC087
:10515000DBFF040E3EC0DBFF120004C03BF005C0C5
:105160003CF006C03DF007C03EF0120000C03BF02E
:1051700001C03CF002C03DF003C03EF01200406AA6
:10518000416A426A3F0E436E1200D950FA0FE96E2F
:08519000FF0EDA20EA6E1200A6
:08519800D9CFE6FFDACFE6FFF4
:1051A000E1CFD9FFE2CFDAFF130EE12402E3E16899
:1051B000E652E16E0C0EDB6AD950FA0FE96EFF0E73
:1051C000DA20EA6E080EEECFDBFF090EEECFDBFF32
:1051D0000A0EEECFDBFF0B0EEECFDBFF1FD9D9504F
:1051E000080F17D9EECFE6FFEECFE6FFEECFE6FFD2
:1051F000EFCFE6FFF0EC2BF0006E060EE15C02E272
:10520000E16AE552E16E0050DF6E020EDF5C01E004
:10521000BCD0050EDBCF02F0060EDBCF03F0F80E9C
:10522000DB50025C006EF90EDB500358016E7F0EFE
:10523000005E000E015A0D0E00C0DBFF0E0E01C015
:10524000DBFF0D0E0E0EDBCF01F00001800E01140E
:105250000AE0010EF36E0C0EF3CFDBFF070EDB50FE
:1052600001E098D09DD00D0EDBCF00F00E0EDBCF0D
:1052700001F0D890015004E6170E005C000E0158B2
:1052800001E39ED0046805687F0E066E076A0D0E66
:10529000DB501F0B04C000F005C001F006C002F097
:1052A00007C003F007E0D890033202320132003227
:1052B000E806F9E10F0E00C0DBFF100E01C0DBFFB6
:1052C000110E02C0DBFF120E03C0DBFF0F0EDBCF9F
:1052D00000F0100EDBCF01F0110EDBCF02F0120E4A
:1052E000DBCF03F0D950010F94D8EE500016EE50EA
:1052F0000116EE500216EE50031600500110021077
:10530000031002E1000E01D0010EE76E0C0EE7CF94
:10531000DBFFDB5055E0046A056A800E066E076A03
:10532000010E086E096A0A6A0B6AD9500F0F71D80C
:10533000EE500826EE500922EE500A22EE500B22C3
:105340000850045C006E09500558016E0A5006585A
:10535000026E0B500758036ED950010F5AD80050F7
:10536000EE160150EE160250EE160350EE16D9500E
:10537000080FE66E000EDA20E66E50D87EEC2CF0B8
:10538000E552E552E552E5521BD0DF0419E1070E64
:10539000DB5006E0006A016A026A800E036E04D0E8
:1053A000006A016A026A036A080E00C0DBFF090E88
:1053B00001C0DBFF0A0E02C0DBFF0B0E03C0DBFFE8
:1053C000F60EDBCFE9FFF70EDBCFEAFF0C0EDBCFEB
:1053D000EFFF080EDBCF00F0090EDBCF01F00A0E65
:1053E000DBCF02F00B0EDBCF03F000C03AF001C0C0
:1053F0003BF002C03CF003C03DF0130EE15C02E262
:10540000E16AE552E16EE552E5CFDAFFE7CFD9FF79
:105410001200E96E000EDA20EA6E1200D950010F78
:0A542000E66E000EDA20E66E1200C0
:06542A008194060E7DD8FE
:10543000818412008194040E78D8818412006CD883
:105440008ED8100E59D802E078D8FEE18DD802E04F
:1054500074D8FEE18ED8FA0E76D8818468D05CD8F4
:10546000E652DF6A8194030E60D8100E45D802E040
:1054700064D8FEE179D802E060D8FEE17AD8C7A00E
:10548000FED766D049D8D1DF8194010E4ED8FD0EEB
:105490005AD881844CD040D8E652DF6A8194050EF8
:1054A00044D856D039D8E652E652E65258D84ED8AB
:1054B0004DD84CD8DF6A010EDB6A020EDB6AD9CF09
:1054C000E9FFDACFEAFF000EEE5C000EEE58020EA6
:1054D000EF580DE2E668FEEC2FF0E552D9CFE9FF78
:1054E000DACFEAFFEE2A000EEE22EE22E8D7818420
:1054F000E552E552E5521BD0036ED950FB0FE96E21
:10550000FF0EDA20EA6E03501F0BEECF00F0EECF55
:1055100001F0EECF02F01200D9CFE6FFDACFE6FFBE
:10552000E1CFD9FFE2CFDAFF1200E66E27D0E552D5
:10553000E5CFDAFFE7CFD9FF1200D890023201326F
:105540000032E8061200DBCFE6FF18D0E66A16D07C
:10555000A7EC30F0DF6E8184DF50E552E8D765DFDD
:105560008194020E95EF2AF00050DFDF080E7CEFE9
:105570002AF00050DADFFB0EA3EF2AF0FEEC2FF04A
:04558000E5521200DE
:0C55840096D8E1CFD9FFE2CFDAFF0C0E81
:10559000E12402E3E168E652E16ED950FA0FE96EC8
:1055A000FF0EDA20EA6E080EEECFDBFF090EEECF1B
:1055B000DBFF0A0EEECFDBFF0B0EEECFDBFF79D861
:1055C000D950080FE96E000EDA20EA6EEECFE6FF42
:1055D000EECFE6FFEECFE6FFEFCFE6FFF0EC2BF0ED
:1055E000006E060EE15C02E2E16AE552E16E0050F7
:1055F000E76E070EE7CFDBFFDB50840B3AE1070EC7
:10560000DB041AE1060EDB5006E0006A016A026A5A
:10561000800E036E04D0006A016A026A036A080EF3
:1056200000C0DBFF090E01C0DBFF0A0E02C0DBFF7A
:105630000B0E03C0DBFF1DD0F80EDBCF00F0F90E20
:10564000DBCF01F0D950040FE96E000EDA20EA6ECC
:105650000050EE260150ED22D950080FE66E000EE4
:10566000DA20E66E26D87EEC2CF0E552E552E552C3
:10567000E552080EDBCF00F0090EDBCF01F00A0E79
:10568000DBCF02F00B0EDBCF03F000C03AF001C01D
:105690003BF002C03CF003C03DF00C0EE15C02E2C6
:1056A000E16AE552E16EE552E5CFDAFFE7CFD9FFD7
:0C56B0001200D9CFE6FFDACFE6FF1200AF
:0456BC00D9CFE6FF5D
:1056C000DACFE6FFE1CFD9FFE2CFDAFF0C0EE1241B
:1056D00002E3E168E652E16ED950FA0FE96EFF0E7F
:1056E000DA20EA6E010EEECFDBFF020EEECFDBFF1B
:1056F000030EEECFDBFF040EEECFDBFF63D8D950F5
:10570000010FE96E000EDA20EA6EEECFE6FFEECF73
:10571000E6FFEECFE6FFEFCFE6FFF0EC2BF0006EFA
:10572000060EE15C02E2E16AE552E16E0050DF6ED6
:10573000850EDF1404E04DD8EE6AED6A23D0090E21
:10574000DBCF00F00A0EDBCF01F0820E0026FF0E49
:1057500001223FD800C0EEFF01C0EDFF7E0EF36EC8
:10576000090EF3CFDBFF0A0EDB6AD950010FE66E9C
:10577000000EDA20E66E26D87EEC2CF0E552E552DB
:10578000E552E552010EDBCF00F0020EDBCF01F057
:10579000030EDBCF02F0040EDBCF03F000C03AF0C3
:1057A00001C03BF002C03CF003C03DF00C0EE15CD8
:1057B00002E2E16AE552E16EE552E5CFDAFFE7CFBA
:1057C000D9FF1200D950050FE66E000EDA20E66E02
:1057D0001200F80EDBCFE9FFF90EDBCFEAFF120073
:1057E000D9CFE6FFDACFE6FFE1CFD9FFE2CFDAFF8C
:1057F000E652006801687F0E026E036AD950FA0F04
:10580000E96EFF0EDA20EA6EEE500016EE50011639
:10581000EE500216EE5003166AD800C0EEFF01C02B
:10582000EEFF02C0EEFF03C0EEFFFD0EDB50800B6B
:1058300002E0010E01D0000EE66E59D8060EE926F0
:10584000000EEA22E552E750EF6EFC0EDBCF00F0CF
:10585000FD0EDBCF01F0D89000360136FC0E00C003
:10586000DBFFFD0E01C0DBFFDB50E66E40D8040E0F
:10587000E926000EEA22E552E750EE6EED6AFD0ED3
:10588000DB50006E016AFF0E001818E1015016E1AE
:105890002ED8EECF00F0EECF01F0EECF02F0EFCF3A
:1058A00003F0005001100210031006E0210E070162
:1058B000E26FE36B800E0BD0040E09D0FD0EDB50BF
:1058C00008E115D8EE6AEE6AEE6AEE6A010EDF6E46
:1058D00006D0020EDF6E0BD8EE52EE52EE8EDF5087
:1058E000E552E552E5CFDAFFE7CFD9FF1200F80E17
:0C58F000DBCFE9FFF90EDBCFEAFF12006E
:0458FC00D9CFE6FF1B
:10590000DACFE6FFE1CFD9FFE2CFDAFF5BD801348F
:1059100011E20050FE08000E01540CE276D805E0BA
:105920006CD8800EEE6EEE6847D067D8800EEE6EB3
:105930007F0E0ED047D8D890015004E6010E005CCF
:10594000000E01580BE261D805E057D8EE6A800ED0
:10595000EE6E32D052D8EE6AEE6A2ED047D8EECF35
:1059600000F0EECF01F0EECF02F0EFCF03F032D82F
:1059700000C0EEFF01C0EEFF02C0EEFF03C0EEFF6D
:1059800021D80050010B05E025D8020E3AD8EF8E41
:1059900004D020D8020E35D8EF9E14D8D89001320A
:1059A000003218D8030E2DD800C0EFFF1AD804E03B
:1059B00011D8030E26D8EF8EE552E5CFDAFFE7CFF8
:1059C000D9FF120013D8040E1CD8EECF00F0EFCF91
:1059D00001F01200FA0EDBCFE9FFFB0EDBCFEAFF8E
:1059E000120004D8060E0DD8EF501200FC0EDBCFCB
:1059F000E9FFFD0EDBCFEAFF1200ECDFEE6AEE6A94
:105A00001200E926000EEA221200220E0701E26FC0
:065A1000E36BF1EF2CF046
:0A5A1600D9CFE6FFE1CFD9FF030E60
:105A2000E126DF6A010EDB6A020EDB6AFD0EDB5047
:105A3000A96EFE0EDB50A86EA69EA69CA684F2AEB2
:105A400003D0F29E010EDF6EF2AE04D0F29EDE5263
:105A5000010EDD6EF2AC06D0F29C010EF36E020E6A
:105A6000F3CFDBFF550EA76EAA0EA76EA682A6B2D5
:105A7000FED7DF0401E1F28E010EDB0401E1F28EBC
:105A8000020EDB0401E1F28CA694FD0EDBCFE6FFF3
:105A900017D8E552006EFE0EDB50005C03E1010EEC
:105AA00003D002D0000E00D0006E030EE15C02E2D3
